:020000041801E1
:102000005472427404000000010001000100C0008D
:102010000030000000000000626F6F7400000000DC
:1020200000000000000003000000000000000300AA
:1020300080BD000000000000000000000000000063
:102040004BB1665E6C2A4812DD2C2863466F3073F4
:1020500037E029566EA915EF8AB158AE48FC4DEB12
:10206000BDEEC09724F2E351F7C9CB8FA8BE3C7EEA
:102070006C45310D47813B8C4F69B27DA53F33CE16
:10208000624C78C59C4570F956B5CB447A966BD5B1
:102090004E0E5D1C7FDD79FB6C48C8B4F200F81170
:1020A00075DDEF9D789899E95A7E2AA592A4616919
:1020B0006D4820F38B920780ADBC4EA2BDD2729DBD
:0020C00020
:0400000518012000BE
:00000001FF
