:020000041800E2
:100000004400001800000000000000000000000094
:1000100000000000000000000000000000000000E0
:1000200000000000000000000000000000000000D0
:1000300000000000000000000000000000000000C0
:100040004400001873700430970100089381C107C1
:10005000170500001305051F136535007310553093
:100060000965732005301385C1F3731075303705AA
:1000700010007310557C175100081301A1AAEF302E
:10008000D00EEF30204401A000000000000000006E
:100090000000000000000000000000000000000060
:1000A0000000000000000000000000000000000050
:1000B0000000000000000000000000000000000040
:1000C000130181FB16C21AC4F322103473232034A7
:1000D0009AC096C27360043006C01EC62AC82ECAD3
:1000E00032CC36CE3AD03ED242D446D672D876DA28
:1000F0007ADC7EDE1373F33F0A03973200009382AB
:10010000822F829273700430864513F5F53F37E6EF
:1001100000E0130606102A968306060005471347DB
:10012000F7FFB377D7002300F600B72200009382D1
:10013000028873A002307390253496427390123473
:10014000824092422243B2434245D2456246F24641
:10015000025792572258B258425ED25E625FF25FF7
:100160001301810473002030711116C0F322203472
:1001700063C4020A110197120008938262AF93824E
:10018000C2F723A0120023A2220023A4320023A638
:10019000420023AA620023AC720023AE820023A097
:1001A000920223A2A20223A4B20223A6C20223A87F
:1001B000D20223AAE20223ACF20223AE020323A05E
:1001C000120523A2220523A4320523A6420523A853
:1001D000520523AA620523AC720523AE820523A033
:1001E000920723A2A20723A4B20723A6C20723A82B
:1001F000D20723AAE20723ACF2077325103423AEFB
:10020000A2067325003023A0A20816858322C1FF11
:100210002A8116C8EF30501E824211016FF05FEA4A
:100220001300000013000000130000001300000082
:100230001300000013000000130000001300000072
:1002400025B70000000000000000000000000000D2
:100250000000000000000000000000000000AE8769
:10026000328836872A836399062097A800009388EE
:10027000289C63FFC50A41676375E60A1307F00F00
:100280003337C7000E07B356E600B69883C608009A
:10029000369793060002998E638C0600B397D700B9
:1002A0003357E5003318D600B365F7003313D50094
:1002B0001355080133F7A50213160801418293561E
:1002C0000301B3D5A5024207D98EB307B6022E8724
:1002D00063FCF600C2961387F5FF63E7060163F53A
:1002E000F6001387E5FFC2969D8EB3F7A602420380
:1002F00013530301B3D6A602C20733E36700B30565
:10030000D6023685637BB30042931385F6FF63669E
:1003100003016374B3001385E6FF4207498F8145EB
:100320005DA8B70600014147E36FD6F46147A1BF5E
:1003300063150600854633D8C602C166637FD808B8
:100340009306F00F63F306012147B356E800B69811
:1003500083C60800BA9613070002158F63160708B4
:10036000B38707418545135608019318080193D8B0
:1003700008019356030133F7C702B3D7C7024207F8
:10038000D98E3385F8023E8763FCA600C296138798
:10039000F7FF63E7060163F5A6001387E7FFC29640
:1003A000898EB3F7C602420313530301B3D6C602C4
:1003B000C20733E36700B388D8023685637B130135
:1003C00042931385F6FF636603016374130113857B
:1003D000E6FF4207498F3A858280B7060001414710
:1003E000E365D8F6614795B73318E800B3D5D70071
:1003F0003313E500B356D50013550801B397E70052
:1004000033F7A502B3E8F60093170801C18313D6AA
:100410000801B3D5A5024207518FB386B7022E86D5
:10042000637CD70042971386F5FF63670701637506
:10043000D7001386E5FF4297B306D74033F7A602ED
:10044000C20893D80801B3D6A6024207B385D702E3
:10045000B3671701368763FCB700C2971387F6FFAF
:1004600063E7070163F5B7001387E6FFC2978D8F37
:1004700093150601D98DC5BD63E3D514416763FFAC
:10048000E6021308F00F3337D8000E0733D8E60022
:10049000979500009385C579C29503C8050093051B
:1004A00000023A98B3850541639105020547E3E4EC
:1004B000F6F23335C5001347150031BFB70500010B
:1004C0004147E3E5B6FC6147D1B733570601B39620
:1004D000B600D98E93DE060133D70701B378D70370
:1004E000B397B700335805013363F80093970601BB
:1004F000C183135803013316B6003357D703C2081C
:1005000033E80801338FE7023A8E637CE8013698BE
:10051000130EF7FF6367D8006375E801130EE7FF5A
:1005200036983308E841B378D8033358D803C20863
:10053000B38E070393170301C183B3E7F800428723
:1005400063FCD701B6971307F8FF63E7D70063F59D
:10055000D7011307E8FFB697420EB387D741C16EA4
:100560003367EE001388FEFF3373070193580701CA
:10057000337806014182330E030333880803935610
:100580000E013303C30242939A96B388C80263F301
:100590000601F69813D60601B29863E01703E390BC
:1005A00017D9C167FD17FD8EC206337EFE003315D5
:1005B000B500F2968145E370D5E27D178DB3814594
:1005C000014711BDB2883687AA872E886399061C19
:1005D000979600009386C66563F8C50A4163637EFB
:1005E00066081303F00F6373C30021473353E6001B
:1005F0009A9603CE0600130300023A9E3303C341CA
:10060000630C0300B3956500335EC501B318660043
:100610003368BE00B317650013D608013377C802EC
:1006200013950801418193D607013358C802420748
:10063000D98E3308050363F80601C69663E51601F3
:1006400063F30601C696B386064133F7C602C207B6
:10065000C183B3D6C602B306D50213150701C98FED
:1006600063F8D700C69763E5170163F3D700C69711
:10067000958F33D56700814582803703000141475C
:10068000E36666F661479DB7631506000546B358F5
:100690001603416663F3C8081306F00F637316016F
:1006A000214733D6E800B29603CE060013030002BA
:1006B0003A9E3303C34163190306B385154113D72B
:1006C000080113950801418113D60701B3F6E5022D
:1006D000B3D5E502C206D18EB305B50263F8B60004
:1006E000C69663E5160163F3B600C696B385B640B9
:1006F000B3F6E502C207C183B3D5E502B305B5027F
:1007000013950601C98F63F8B700C69763E5170113
:1007100063F3B700C6978D8FA9BF37060001414725
:10072000E3E1C8F86147B5BFB398680033D7C501A6
:10073000B3176500335EC50113D50801B376A70270
:10074000B3956500336EBE0093950801C1811356C1
:100750000E013357A702C206D18E3387E50263F834
:10076000E600C69663E5160163F3E600C696338697
:10077000E640B376A602420E135E0E013356A60281
:10078000C2063386C502B3E5C60163F8C500C69547
:1007900063E5150163F3C500C695918D0DB7E3EDD3
:1007A000D5EC416763F5E604930EF00F33B7DE0036
:1007B0000E0733D3E60097980000938868479A980D
:1007C00083CE0800130E0002BA9E330EDE4163177B
:1007D0000E0263E4B6006369C500B307C540958D9A
:1007E0003335F5003388A5403E85C28571B5B7081D
:1007F00000014147E3EF16FB614765BF3357D60160
:10080000B396C601D98E13D8060133D7D5013373F9
:100810000703B395C501B357D501CD8F9395060155
:10082000C18193D807013316C6013315C50133576B
:1008300007034203B3681301338FE5023A8363FC75
:10084000E801B6981303F7FF63E7D80063F5E80102
:100850001303E7FFB698B388E84133FF0803B3D822
:100860000803420F3388150393950701C181B365CF
:10087000BF00C68763FC0501B6959387F8FF63E761
:10088000D50063F505019387E8FFB6954203416FF4
:100890003363F3009307FFFFB378F300B38505419B
:1008A0001353030113580601F18F3387F802B3077E
:1008B000F302B388080333030303BE9813580701F8
:1008C00046986373F8007A93935708013E93C16783
:1008D000FD173378F80042087D8F429763E6650084
:1008E000639C6500637AE5003306C7403337C70071
:1008F00036973303E34032873307E5403335E5006D
:10090000B3856540898DB397D5013357C70133E56A
:10091000E700B3D5C5018DB3370810007D18B37853
:10092000B8008E08011113D745019357D5013378CC
:10093000D8000E0826CA4AC8B3E7170106CE93D8D6
:10094000460122CC4EC69374F77F93F8F87F135775
:10095000D60113D9F501FD82336707010E050E0696
:1009600033881441631DD9226352000F6399080232
:10097000B366C700638606589305F8FF639A0500BF
:100980002A963335A600BA97AA9732858544B1A82E
:100990009306F07F631DD8009304F07F65A2930651
:1009A000F07F6381D41AB7068000558FC285930605
:1009B000800363C9B608FD4663C0B606130800028B
:1009C0003308B840B3160701B358B6003316060112
:1009D000B3E616013336C000558E3357B7002A965A
:1009E0003E97B337A600BA97328513978700635BAB
:1009F000071485041307F07F6382E44AB70680FF7B
:100A0000FD16FD8E935515009397F60105894D8DC2
:100A10005D8D93D716003DA2938605FE93080002D4
:100A2000B356D70001486388150113080004B305C5
:100A3000B8403318B7003366C8003336C000558E4F
:100A4000014771BF598E3336C000DDBF630D080A00
:100A5000B385984063970402B3E6A7006387064214
:100A60009386F5FF639806003295BA973336C50032
:100A7000B29729BF1308F07F639D0501BA873285BD
:100A800021BF9306F07FE38BD8FEB7068000D58F99
:100A9000AE869305800363C4D506FD4563CBD502BE
:100AA000130800023308D8403353D500B39507012B
:100AB00033150501B3E565003335A0004D8DB3D680
:100AC000D7003295B387E6003336C500B297C684A7
:100AD00029BF938506FE13030002B3D5B700014872
:100AE0006388660013080004B306D8403398D70023
:100AF0003365A8003335A0004D8D8146D9B75D8D93
:100B00003335A000DDBF9386140093F5E67F63972D
:100B10000506B3E6A70063970404638C0636B36644
:100B2000C700638106022A96BA973335A600AA97B2
:100B300013978700328563570700370780FF7D17BB
:100B4000F98F854413777500630C07341377F5002C
:100B500091466307D7349306450033B5A600AA979C
:100B600036853DAEE38C06F0598EE30706E2014977
:100B7000B707400001459304F07F1DA69305F07F61
:100B8000638CB6302A963E97B337A6003E9713156E
:100B9000F7010582518D93571700B68465B76357E7
:100BA000000D63920808B366C700638B0634930593
:100BB000F8FF639B05003306C5403335C500998FA8
:100BC000898F32858544B1A09306F07FE306D8DC97
:100BD0009306800363C8B608FD4663CFB6041308C6
:100BE00000023308B840B3160701B358B6003316F5
:100BF0000601B3E616013336C000558E3357B700F1
:100C00003306C5403387E740B337C500B307F74025
:100C1000328513978700E35707F2370480007D146D
:100C20007D8CAA8955AA9306F07FE38DD4F0B70690
:100C30008000558FC28569BF938605FE9308000228
:100C4000B356D70001486388150113080004B305A3
:100C5000B8403318B7003366C8003336C000558E2D
:100C6000014779BF598E3336C000DDBF6306080CDB
:100C700033889840639C0402B3E5A7006384052889
:100C80009305F8FF639B05003305A640B307F740C3
:100C90003336A600918F368935B71303F07F631F73
:100CA0006800BA8732859304F07F4DA89305F07FE2
:100CB000E389B8FEB7058000CD8FC2851308800395
:100CC0006348B8067D48634EB8021303000233033D
:100CD000B340335EB5003398670033156500336861
:100CE000C8013335A0003365A800B3D5B70033057C
:100CF000A640B307B7403336A600918FC684368925
:100D000009BF138805FE130E000233D80701014303
:100D10006388C50113030004B305B3403393B700E0
:100D20003365A3003335A0003365A8008145C1B702
:100D30005D8D3335A000DDBF9385140093F5E57F0D
:100D40006398050633E8A700B365C70063970404FA
:100D500063180800638C051ABA8732853689DDB3BB
:100D6000E38205DE3308C540B385E740B3380501AB
:100D7000B385154113948500635A04003305A640DA
:100D8000B307F7403336A600918FC9BF3365B8006B
:100D900063020518AE87428575B363180800638D3A
:100DA0000516BA8732853689C5BEE38705BEC1B34D
:100DB000B309C540B33535013384E7400D8C931535
:100DC000840063D80506B309A640B307F74033365D
:100DD00036013384C7403689630404062285EF1048
:100DE0000044130785FFFD4763C2E706930700022F
:100DF000998F3314E400B3D7F9005D8C3395E90083
:100E0000634F9706058F93071700FD4663C6F604E8
:100E1000130700021D8F3356F500B316E400331597
:100E2000E500D18E3335A000558DB357F4008144D1
:100E300011BB33E58900E31105FA81478144C9A854
:100E40004E85EF10C03D1305050261BF130485FDFB
:100E50003394890001456DB7051713060002335717
:100E6000E40081466387C700930600049D8EB31695
:100E7000D400558D3335A000598D81474DBFB7073C
:100E800080FFFD17998CE18F75B9BA873285AE84E2
:100E900055B9BA8732857DB19304F07F814701450A
:100EA00013978700635B070085041307F07F638A4D
:100EB000E406370780FF7D17F98F1397D7010D815F
:100EC000598D1307F07F8D83639AE4005D8D814710
:100ED00063060500B70708000145014913F7F47FD1
:100EE000B2075207F2406244B1839315F901D98FDA
:100EF00033E7B700D2444249B249BA8505618280DE
:100F0000C28489B1BA873285C28489BD81470145CF
:100F1000014979B78147EDBF01450149B707400055
:100F200099B98147014551BF797126D24ECE52CC35
:100F30005AC85EC613D8450106D622D44AD056CA2E
:100F40009394C5001378F87F2A8BB28B368AB180D0
:100F500093D9F501630408089307F07F630BF80C3D
:100F6000935AD5018E04B3E49A00B70A8000B3EA1D
:100F7000540113143500130918C0014B13554A01CD
:100F80009314CA001378F57FB180135AFA016305F0
:100F9000080C9307F07F630BF8101395340093D778
:100FA000DB015D8DB7048000C98C139F3B001305E6
:100FB00018C0814713172B005D8F7D17B94633C6C4
:100FC00049013308A94063E5E6109796000093862F
:100FD000A6BE0A073697184336970287B3EAA400DD
:100FE00063830A06638C04022685EF10402393076F
:100FF00055FF71476349F702F54A130485FFB38A29
:10100000FA40B3948400B35A5B01B3EA9A003314F4
:101010008B001308D0C03309A84085B7EF102020FB
:1010200013050502E9B7930485FDB31A9B0001443B
:10103000CDB7B3EAA400638C0A002A84A68A1309F8
:10104000F07F0D4B25BF01440149054B05BF01440D
:101050001309F07F094B1DB733EF740163010F06CD
:10106000638A04022685EF10801B930755FF7147A2
:101070006348F7027547130F85FF1D8FB394E40192
:1010800033D7EB00D98C339FEB011306D0C0330567
:10109000A64005B75E85EF10801813050502F1B76D
:1010A000930485FDB3949B00014FC5B733EF7401E2
:1010B000630B0F005E8F1305F07F8D47E5BD814404
:1010C00001458547C5BD81441305F07F8947DDB5DE
:1010D00063E6540163959A2A6363E42B9396FA01BD
:1010E000135714009317F40193DA1A0033E4E6005F
:1010F0001395840093548F01458D135E0501B3D879
:10110000CA03131305011353030113570401931565
:101110008F00B3F4CA03C68FB3061303939A040176
:1011200033675701637CD7002A97938FF8FF636773
:10113000A7006375D700938FE8FF2A97158FB35EDA
:10114000C703420441803377C703F686B308D3034D
:101150004207418F637C17012A979386FEFF6367DE
:10116000A700637517019386EEFF2A97C20FB3EFAE
:10117000DF00C166330417419388F6FF13DF0F01C8
:1011800033F71F0193DE0501B3F81501B30317030D
:10119000B3041F033387EE02B302DF03330F97005C
:1011A00013D703017A9763739700B692135F070111
:1011B000169FC162FD12B3765700C206B3F3530007
:1011C0009E966367E401FE84631EE40363FCD7021A
:1011D000AE9733B7B7002A973A949384FFFF6366BC
:1011E00085006311850263EFB7006366E401631B4A
:1011F0008F0063F9D700AE9733B7B7002A9793846F
:10120000EFFF3A94B386D7403304E441B3B7D70035
:101210001D8C7D5F6306850E335FC40313D7060103
:101220003374C403B307E3034204598C7A87637CA5
:10123000F4002A941307FFFF6367A4006375F400AA
:101240001307EFFF2A941D8C335FC403C206C182CB
:101250003374C403FA873303E3034204558C637C7D
:1012600064002A949307FFFF6367A400637564001A
:101270009307EFFF2A9442075D8F93170701C183FD
:101280003304644013530701338E1703B308130369
:1012900033836E02B38EFE0293570E01C69EF697FD
:1012A00063F41701C166369393D807019A98416396
:1012B0007D13B3F66700C206337E6E00F296636755
:1012C00014016311141B3A8F638C06022A94130FC6
:1012D000F7FF6361A402636614016314141963FDCC
:1012E000D50093971500B3B5B7002E95130FE7FF00
:1012F0002A94BE85631414016384B600136F1F0023
:101300001307F83F6358E00A93777F00638D070067
:101310009377FF0091466388D70093064F0033BF51
:10132000E601FA94368F9397740063D80700B707E5
:1013300000FFFD17FD8C130708409307E07F63C98A
:10134000E710135F3F009397D401B3E7E70113D58C
:10135000340032051377F77F5207B250225431819F
:10136000598D7E063367C50092540259F249624A8C
:10137000D24A424BB24B3E85BA85456182807D1888
:101380008147BDB34E86D684228FDA8709476381B1
:10139000E70C0D476387E70A0547E393E7F6014546
:1013A00081478DA85286DDB7B7040800014F01467A
:1013B0008D47E9BF0545198D93078003E3C1A7FE5B
:1013C000FD4763CBA7041308E841B39704013357E3
:1013D000AF0033180F01D98F33380001B3E707018D
:1013E00033D5A40013F77700630D070013F7F70058
:1013F00091466308D70013874700B337F7003E953F
:10140000BA8713178500634A07041317D5018D8324
:10141000D98F0D81014735BF8557998F93060002FB
:10142000B3D7F40001476306D5001308E8433397A8
:101430000401336FE701333FE001B3E7E701014502
:1014400055B73705080081471307F07F014611B7EC
:10145000014581471307F07FEDBD014581470547F1
:10146000CDBD7A873A8F59BD13D74501B707100014
:10147000FD1713D846012A83AA8E1377F77F130529
:10148000F07FB3F8B700328FF58FFD811378F87FC6
:10149000FD82631AA70033EE6800054563140E0051
:1014A0006305E80082806316A8005D8E0545E31B96
:1014B00006FE0545E31807FFE396F8FEE394EEFF0A
:1014C0006389D500E31007FE33E568003335A000DB
:1014D00082800145828013D84501B7071000FD17AF
:1014E00013D746011378F87F930EF07FB3F8B70057
:1014F0002A83F58FFD81328E1377F77FFD82631883
:10150000D801B3EEA800638C0E06F95581A06316CE
:10151000D701B3EEC700E39A0EFE6314080633E565
:10152000A80013351500631507005D8E63030604DC
:10153000631A05006394D500635C070163890502A3
:10154000FD5529A0FD5563830600B6852E85828052
:101550006355E800E39C05FEE5B7E3E117FF639DF3
:10156000F800E36D6EFCE367C3FF8145C5B78545B1
:10157000F1BFE31C05FED9B7E3EEF8FCFDB7E30AC3
:1015800007F9E31907FA01454DB713D84501B70725
:101590001000FD1713D746011378F87F930EF07FE4
:1015A000B3F8B7002A83F58FFD81328E1377F77F6A
:1015B000FD826318D801B3EEA800638C0E0689453E
:1015C00081A06316D701B3EEC700E39A0EFE631441
:1015D000080633E5A80013351500631507005D8E76
:1015E00063030604631A05006394D500635C070176
:1015F00063890502FD5529A0FD5563830600B68564
:101600002E8582806355E800E39C05FEE5B7E3E1A3
:1016100017FF639DF800E36D6EFCE367C3FF814530
:10162000C5B78545F1BFE31C05FED9B7E3EEF8FC6D
:10163000FDB7E30A07F9E31907FA01454DB77971D8
:1016400022D426D24ECE52CC56CA5AC893D945017E
:1016500006D64AD05EC69394C50093F9F97F2A84D2
:10166000328BB68AB18013DAF501638209089307D9
:10167000F07F6387F90C9357D5018E04DD8CB70793
:101680008000DD8C13193500938919C0814B13D567
:101690004A011394CA001375F57F318093DAFA0179
:1016A0006302050C9307F07F6308F5109357DB0185
:1016B0000E045D8CB70780005D8C130515C0931771
:1016C0003B00014793962B00D98E4E95FD16B945E8
:1016D00033465A011308150063E2D51097850000C0
:1016E000938545518A06AE969442AE96828633E93A
:1016F000A40063000906638A04022685EF003032E5
:10170000130755FFF14763C7E702F547130985FF44
:10171000998FB3942401B357F400DD8C331924015D
:101720009309D0C0B389A94095B7EF00502F130596
:101730000502F9B7930485FDB31494000149CDB7B0
:1017400033E9A400630B09002A899309F07F8D4BCC
:101750003DBF81448149854B1DBF81449309F07F82
:10176000894B35B7B367640163810706630A0402D6
:101770002285EF00D02A930655FFF14763C8D702B0
:101780007547930785FF158F3314F4003357EB002B
:10179000598CB317FB001307D0C03305A74015B70A
:1017A0005A85EF00D02713050502F1B7130485FD14
:1017B00033148B008147C5B7B3676401638B07009F
:1017C000DA871305F07F0D47F5BD01440145054754
:1017D000D5BD01441305F07F0947EDB5416F930E68
:1017E000FFFF1357090193D807013379D901B3F7E4
:1017F000D701B3852803B3862703B30FF7023383DA
:10180000F50193D506019A95330E170363F3F5019D
:101810007A9EB3F6D60193D30501B3F5D501135FD4
:101820000401B372D401C205B695B30E5702B38654
:10183000220333092F033303D90113D906011A995F
:101840003307E7036374D90141631A97935E090173
:10185000C169BA9E1387F9FFF98E3379E90013D471
:1018600004014209F98C369933879702CA933303EE
:10187000F402B3869802B3878802B3886600935651
:101880000701C69663F36600CE9793D80601C16937
:10189000B38FF8009387F9FFFD8E7D8FB388920296
:1018A000C206BA96B3075402B3049F0233038F02F1
:1018B000BE9413D40801A29463F3F4004E93C1675D
:1018C000FD1733F7F400B3F8F80042071E9E469761
:1018D00033392E01769733042701369EB336DE0066
:1018E000B308F401338FD8003337D70133342401E0
:1018F000598CC180B3B8F801B336DF002694B3E643
:10190000D800369493577F011A9426045D8C931760
:101910009E00CD8F13179F00B337F000135E7E013A
:10192000B3E7C701D98F131774006359070A13D798
:101930001700858BD98F1317F401D98F0580930673
:10194000F83F635FD00813F77700630D070013F7C4
:10195000F70091456308B70013874700B337F700D6
:101960003E94BA871317740063580700370700FFC7
:101970007D17798C930608401307E07F634DD70EDF
:1019800013D737009317D401D98F0D80320413F782
:10199000F67F52073180598C7E063367C400B250FF
:1019A000225492540259F249624AD24A424BB24BF3
:1019B0003E85BA854561828052862684CA875E87C5
:1019C0008946630AD70A8D466300D70A8546E3181D
:1019D000D7F601448147A5A05686DDB72A8885B78A
:1019E0008545958D13078003E345B7FE7D47634A20
:1019F000B7041308E84133170401B3D6B700B3970F
:101A00000701558FB337F000D98F3354B40013F763
:101A10007700630D070013F7F70091466308D700BE
:101A200013874700B337F7003E94BA871317840033
:101A3000634807041317D4018D83D98F0D80814625
:101A4000B1B70557158F130500023357E4008146DF
:101A50006386A5001308E843B3160401D58FB33796
:101A6000F000D98F014465B7370408008147930619
:101A7000F07F014621BF014481479306F07F39B7CB
:101A800001448147854619B7370810007D18B3789F
:101A9000B8008E08011113D745019357D50133784B
:101AA000D80026CA4AC8B3E7170106CE93D8460124
:101AB00022CC4EC69374F77F13D9F5011357D60184
:101AC0000E0893F8F87F9305F07F0E05FD823367CB
:101AD00007010E066396B800B365C700639405005E
:101AE00093C616003388144163992623635D000F63
:101AF00063960804B366C700638206021388F4FF86
:101B0000631A08002A963335A600BA97AA97328539
:101B1000854495A89306F07F6399D40213777500E6
:101B2000630C074E1377F50091466307D74E930673
:101B3000450033B5A600AA973685F9A99306F07F2C
:101B4000E38ED4FCB7068000558F9306800363C8EC
:101B50000609FD4663C0060793050002B3850541EB
:101B6000B316B700B35806013316B600B3E6160134
:101B70003336C000558E335707012A963E97B33748
:101B8000A600BA97328513978700E35907F88504B2
:101B90001307F07F6380E448B70680FFFD16FD8ED3
:101BA000935515009397F60105894D8D5D8D93D75B
:101BB0001600ADB7930608FE93080002B356D7008F
:101BC0008145630818019305000433880541B31566
:101BD00007014D8E3336C000558E014779BF598EAF
:101BE0003336C000DDBF630D080AB38598406397A4
:101BF0000402B3E6A700638606409386F5FF639868
:101C000006003295BA973336C500B29711B713085C
:101C1000F07F639D0501BA87328519A69306F07F90
:101C2000E38BD8FEB7068000D58FAE869305800380
:101C300063C4D506FD4563CBD50213080002330803
:101C4000D8403353D500B395070133150501B3E5EB
:101C500065003335A0004D8DB3D6D7003295B387DC
:101C6000E6003336C500B297C68431BF938506FEC1
:101C700013030002B3D5B700014863886600130858
:101C80000004B306D8403398D7003365A800333535
:101C9000A0004D8D8146D9B75D8D3335A000DDBFE5
:101CA0009386140093F5E67F63980504B3E6A700D6
:101CB00063980402638B0634B366C700E38006E6CC
:101CC0002A96BA973335A600AA97139787003285CC
:101CD000E35607E4370780FF7D17F98F85443DBD44
:101CE000E38B06F2598E630D06220149B7074000C7
:101CF00001459304F07F0DA69305F07F638AB6300B
:101D00002A963E97B337A6003E971315F701058232
:101D1000518D93571700B68411B56355000D63922A
:101D20000808B366C700E38B06DE1388F4FF631B65
:101D300008003306C5403335C500998F898F328539
:101D40008544B1A09306F07FE38AD4DC9306800338
:101D500063C60609FD4663CE060593050002B385FA
:101D60000541B316B700B35806013316B600B3E603
:101D700016013336C000558E335707013306C54070
:101D80003387E740B337C500B307F7403285139771
:101D90008700E35507D8370480007D147D8CAA891D
:101DA00055AA9306F07FE38BD4D6B7068000558FF3
:101DB00071BF930608FE93080002B356D700814511
:101DC000630818019305000433880541B315070122
:101DD0004D8E3336C000558E01474DB7598E333680
:101DE000C000DDBF6306080C33889840639C040282
:101DF000B3E5A700638205289305F8FF639B050000
:101E00003305A640B307F7403336A600918F3689D5
:101E100005BF1303F07F631F6800BA873285930400
:101E2000F07F4DA89305F07FE389B8FEB7058000E9
:101E3000CD8FC285130880036348B8067D48634E82
:101E4000B802130300023303B340335EB500339886
:101E50006700331565003368C8013335A00033656A
:101E6000A800B3D5B7003305A640B307B740333653
:101E7000A600918FC684368919BF138805FE130EFC
:101E8000000233D8070101436388C501130300042E
:101E9000B305B3403393B7003365A3003335A000D7
:101EA0003365A8008145C1B75D8D3335A000DDBF26
:101EB0009385140093F5E57F639A050633E8A70040
:101EC000B365C7006397040463180800638A051AA2
:101ED000BA873285368999B1E38205C43308C54093
:101EE000B385E740B3380501B385154113948500E8
:101EF000635A04003305A640B307F7403336A60003
:101F0000918FC9BF3365B80063000518AE8742855D
:101F100031B1631A0800638B0516BA87328536899A
:101F20009304F07FE5BEE38D05FEC1B3B309C54060
:101F3000B33535013384E7400D8C9315840063D7A6
:101F40000506B309A640B307F7403336360133849C
:101F5000C7403689630304062285D124130785FF11
:101F6000FD4763C1E70693070002998F3314E4002D
:101F7000B3D7F9005D8C3395E900634E9706058F62
:101F800093071700FD4663C5F604130700021D8F73
:101F90003356F500B316E4003315E500D18E333522
:101FA000A000558DB357F40081448DBE33E5890000
:101FB000E31205FA81478144F1A04E858D24130573
:101FC000050269BF130485FD33948900014575B787
:101FD0000517130600023357E40081466387C700E4
:101FE000930600049D8EB316D400558D3335A000A2
:101FF000598D814755BFB70780FFFD17998CE18F39
:1020000031BEBA873285AE8411BEBA87328539B601
:102010009304F07F8147014513978700635B0700B6
:1020200085041307F07F6388E406370780FF7D1778
:10203000F98F1397D7010D81598D1307F07F8D8389
:10204000639AE4005D8D814763060500B7070800C9
:102050000145014913F7F47FB2075207F240624489
:10206000B1839315F901D98F33E7B700D2444249C0
:10207000B249BA8505618280BA873285C28499BD2A
:1020800081470145014949BF8147EDBF01450149EC
:10209000B7074000B9B98147014561BF13D7450172
:1020A000B70610009387F6FF1377F77F1306E03F1C
:1020B000ED8FFD816355E6041306D0416358E600B9
:1020C000370500801345F5FF2E958280D58F930646
:1020D0003043998E7D46634ED6001307D7BEB39723
:1020E000E7003355D5005D8D638C05003305A040B6
:1020F000828013053041198D33D5A700F5B701450E
:10210000828013D74501B70610002A869387F6FF11
:102110001377F77F1305E03FED8FFD816350E504F2
:102120000145639705009305E0417D5563D3E500C4
:102130008280D58F93063043998EFD4563CAD500C2
:102140001307D7BEB397E7003355D6005D8D828065
:1021500013053041198D33D5A70082800145828057
:10216000411106C622C426C2630F05049357F541E8
:1021700033C4A7001D8C9354F50122854D2013070D
:10218000E041A947098F63CAA702AD47898F55056A
:10219000B357F4003314A4002685B2071377F77FF2
:1021A00052077E05B183D98F33E7A700B24022855D
:1021B00022449244BA85410182805515B317A40088
:1021C00026850144D9BF01478147E5BF411122C49B
:1021D00006C62A846302050499201307E041A94733
:1021E000098F63C6A702AD47898F5505B357F40021
:1021F0003314A4002285B2402244B2071377F77F3C
:102200005207B183B3E6E700B685410182805515D8
:10221000B317A4000144F9BF81470147E1BFC1677B
:102220006376F5029307F00FB3B7A7008E07130785
:1022300000021D8FB357F500178500001305459F59
:10224000AA9703C507003305A7408280370700011E
:10225000C147E36EE5FCE147D9BF8D4763F1C70293
:10226000B367B5008D8B8D466397070418419C4179
:102270006313F704711611059105E3E9C6FE930790
:10228000F6FF630806020347050083C6050063974F
:10229000E60213871700930715003A9501A803C7B4
:1022A000070083C605008507631AD7008505E398F4
:1022B000A7FE014582809307F6FFF1B73305D740AB
:1022C00082800000B3C7A5008D8BB308C50063965C
:1022D00007048D4763F3C704937735002A87639A11
:1022E000070413F6C8FF930706FE6369F7066373D6
:1022F000C702AE86BA8703A806009107910623AEEF
:1023000007FFE3EAC7FE9307F6FF998FF19B91075A
:102310003E97BE956366170182802A87E37E15FF8C
:1023200083C7050005078505A30FF7FEE36A17FFBE
:10233000828083C60500050793773700A30FD7FE79
:102340008505E38007FA83C6050005079377370004
:10235000A30FD7FE8505E39E07FC61B7944183A2D6
:10236000450083AF850003AFC50083AE050103AE12
:10237000450103A3850103A8C5019385450214C344
:1023800083A6C5FF232257002324F7012326E70154
:102390002328D701232AC701232C6700232E0701F6
:1023A00013074702232ED7FEE36AF7FA89B7000026
:1023B0003D432A876376C3029377F7006392070849
:1023C00063970506937606FF3D8ABA960CC34CC305
:1023D0000CC74CC74107E36BD7FE6313060082802E
:1023E000B306C3408A069702000096966780A6004F
:1023F0002307B700A306B7002306B700A305B7005D
:102400002305B700A304B7002304B700A303B70054
:102410002303B700A302B7002302B700A301B7004C
:102420002301B700A300B7002300B700828093F513
:10243000F50F93968500D58D93960501D58D59B7E7
:10244000939627009702000096968682E78086FA88
:102450009680C1171D8F3E96E374C3F895B70000B0
:10246000937735002A8763940704B7867F7F938626
:10247000F6F7FD5511070326C7FFB377D600B697C9
:10248000D18FD58FE388B7FE8346C7FFB307A74038
:102490000346D7FF0345E7FF63890602630406028C
:1024A0003335A0003E9579158280E38006FC834792
:1024B0000700050793763700E39907FE098F130598
:1024C000F7FF82801385D7FF82801385C7FF828044
:1024D00000006307060AB367B5008D8B6394070697
:1024E0008D4763F1C7061C419841639DE70871164B
:1024F000630806083703FFFE1303F3EF3387670013
:10250000B788808093C7F7FFF98F93880808B3F7DF
:102510001701639707060D4E15A018419441B307A4
:1025200067001348F7FFB3F70701B3F71701631B01
:10253000D704711663060604639407041105910518
:10254000E36DCEFC0347050083C605007D16639648
:10255000E6026307060263050702930715002A9641
:1025600031A0630FF6008507630C0700850503C7DC
:10257000070083C60500E306D7FE3305D7408280F7
:10258000014582800347050083C605007D16E3846C
:10259000E6FCE5B7B3E7A5008D8B639E07048D4786
:1025A0002A8763ECC7046307060403C80500930683
:1025B000F6FF850523000701930717006302080251
:1025C0003A96BA9601A803C7F5FF8507A38FE7FEE1
:1025D0006309070085053388F640E396C7FE8280CD
:1025E000368833870701630608048507A38F07FE33
:1025F000E39DE7FE82802A877DB73703FFFEB78819
:1026000080801303F3EF938808080D4E9441B3873D
:10261000660013C8F6FFB3F70701B3F71701E39697
:1026200007F81107232ED7FE71169105E360CEFE41
:102630009DBF8280411185455D4506C697E0FF0735
:10264000E78080A8B24085456145410117E3FF0757
:10265000670083A7797122D440454ECE83290500B7
:1026600052CC56CA5AC85EC606D626D24AD01304E1
:1026700044FB130A0003894A214B914B9307C4047E
:10268000639D0700B250225492540259F249624AA3
:10269000D24A424BB24B4561828083045400B387D7
:1026A0004403CE9703A94701630109061377190074
:1026B000630B0700054798CF1C446386070050440E
:1026C00089452285829793774900638E0700B387F7
:1026D0004403CE9723AC77011C4463860700504423
:1026E0008545228582971379290063000902B38406
:1026F00044031C44CE9423AC540123AC6401638690
:10270000070050448145228582976044130444FBAE
:10271000B5B7411122C42A862A843D4526C24AC043
:1027200006C6AE84EF1000327D59631D050613976F
:102730002400B7170020938747C7BA9737A7001818
:102740001307C7E9BA94232604002328040083C58D
:10275000040004402A8980C34CC881461305000345
:102760007D4863E8B60403454400B7250018228677
:1027700093854565EF00D04603454400952083A727
:10278000C43393E7170023AEF432F326003073709E
:102790000430B7170020938747C89843050798C3AC
:1027A00073900630B24022444A8592440249410166
:1027B00082803387A60290438506104232975047A5
:1027C000799A50C7232C07011053799A10D351BF1F
:1027D000374702601C43014593E717001CC3828002
:1027E000B71780E00A053E958347150093E7170069
:1027F000A300F5008280732520341375F53F828095
:1028000082803707036014438547B397A700FD8E86
:102810006397D7023D469377F50F9306870063775A
:10282000A600C11793F7F70F9306C70098428607D3
:102830000D453315F500798D3355F500828011452E
:102840008280411122C42A862A841305800206C68A
:10285000EF10401F63170504930710102326040090
:1028600023280400232A0400232E04002322040228
:1028700023240402232604022318F4022309040259
:10288000232A0402232C04021C40B240224498470D
:10289000137707F098C798471367370098C7410127
:1028A00082807D55D5B737180020BA88130788C8AD
:1028B0002302B70085452302B70293B516002320F3
:1028C0000700A3020700230AB70010CB63830600AA
:1028D000FD1654C72324070023260702BE863707A8
:1028E00010004686930588C817E3FF07670083A496
:1028F000397126DA4ED652D45AD006DE22DC4AD8B6
:1029000056D25ECE62CC66CA6AC86EC6BE8489479D
:102910002A8B328ABA896390F50C814B6384060056
:10292000938BF6FF371400202689814A01451D4C00
:10293000130484C8994C854D094D631409026383BF
:102940000A005685F2506254D2544259B259225A62
:10295000925A025BF24B624CD24C424DB24D216115
:10296000828063759C00A14463632C01CA84814604
:102970000146A2855A8523200400231294012302D4
:10298000B403230AB4012326040297E0FF07E7807B
:10299000A0B4E34605FAA6864E86A2855A85232072
:1029A00004002312A4012302B403230A04002328F1
:1029B000440123267401232404002326040297E003
:1029C000FF07E78060B1E34C05F6269AA699330924
:1029D0009940A69A9DB7371600200547930786C8E9
:1029E0002382E70213B716002382B70023A0070053
:1029F000A3820700238AE70023A84701B2856383E7
:102A00000600FD166254D4C7F2504259225A925A17
:102A1000F24B624CD24C424DB24D23A4070023A688
:102A20000702A6864E86D254B2595A85025B938518
:102A300085C8216117E3FF07670003AA0111B737B3
:102A4000001822CC26CA06CE9387078F3CC5B7371D
:102A500000189387678A2A84232005047CC53715CC
:102A60000020AE84130640038145130585C802C6C5
:102A70008132A6852285F133631505040328C40439
:102A80008D477800814601469305F009228502981A
:102A9000634A0502B2473707FF00930544041395C4
:102AA0000701798D13D707011377F70F598D416708
:102AB000130707F0F98F5D8DDD266305050071555D
:102AC00011A07D55F2406244D2440561828001111B
:102AD00026CAB71400204AC852C42E892A8A13066F
:102AE00040038145138584C822CC06CE4EC6C9302A
:102AF000138484C889476308F9041147630DE90406
:102B00008547FD596312F9028D472302F400230221
:102B10002403938584C8528597E0FF07E780E08D02
:102B20003335A000B309A040138584C813064003C1
:102B30008145BD386244F2404E85D2444249B24993
:102B4000224A056182809307B0FB2302F400854787
:102B50001CC45CD47DBF2D572302E4001CC45CD48C
:102B6000230424037DB7011122CC26CA4AC806CE0D
:102B7000AA846164EF00D0772A891304F469EF0016
:102B80003077330525416379A4007555F2406244DE
:102B9000D24442490561828003A8C40485471307D3
:102BA000F100814601469545268502988547E31840
:102BB000F5FC8347F100858BE39307FC0145F9B7EA
:102BC0007C41638107029843014598C1D843D8C12D
:102BD000D84798C5984BDC4B98C9DCC9B707001893
:102BE000DCC582807D5582800323C504B687328789
:102BF0008D462E868D45028379715AC8032B450474
:102C000022D426D203244B014AD056CAB3F78502F8
:102C100006D64ECE52CC5EC662C42A89AE84B28A33
:102C20001D8C63F386003684B389D400014A854B3A
:102C300003288904814701478146014699454A8511
:102C4000032C49040298634C05044A85293F6348D4
:102C5000050483278C009146638677018146639340
:102C600007008D4603288904A28756872686894552
:102C70004A850298634505022A8C4A85ED356340F2
:102C80000502A294A29A03244B01629AB30794000E
:102C900063F4F90033849940E3EC34F95285B2507F
:102CA000225492540259F249624AD24A424BB24BE0
:102CB000224C4561828001114EC68329450406CE0F
:102CC00022CC83A7090126CA4AC83377F602631EBD
:102CD000070AB3F7F502639A070A2A846399050481
:102CE00083A7C90001496395C70403288504814768
:102CF00001478146014699450298634105082285AE
:102D00009D35634D050603288404814701478146AC
:102D10000146930500062285029863410506228537
:102D20006244F240D2444249B24905612DBD2E8928
:102D3000B304B60003288404814701478146014655
:102D4000994522850298634B05022285293D6347F8
:102D5000050203288404814701478D464A8693056E
:102D6000000222850298634B05002285ED3B6347F4
:102D7000050083A709013E99E36E99FAF240624487
:102D8000D2444249B249056182807D55C5BF0328BE
:102D90008504011122CC26CA4AC84EC606CEAE848E
:102DA0003289B689814701478146014699452A847F
:102DB0000298635405007D5525A022856D33E34CB0
:102DC00005FE03288404CE874A8781460146A685EE
:102DD00022850298E34105FE22857133E34D05FC0F
:102DE000F2406244D2444249B249056182800111F5
:102DF00022CC26CA06CE4AC889472A84AE84638F6D
:102E0000F5009147638CF50085476387F5067D558E
:102E1000F2406244D2444249056182800328C404DE
:102E2000854778008146014695452285032944045B
:102E30000298E34E05FC0328C40485471307D1001C
:102E4000814601469305500322850298E34105FC23
:102E50000327090285476315F7028347D10085469A
:102E60001306D10093E72700A306F1009305100392
:102E70002285313FE31E05F8A6852285893949BFA1
:102E8000B397E7000357C10089467000D98F231616
:102E9000F1008545F1BF17D3FF076700432C37A723
:102EA00000189306C7D281471307C7D2214603A84B
:102EB0004600631AA80093064002B387D702014573
:102EC000BA979CC18280850793864602E391C7FE2C
:102ED0007D5582801441984A058B63090700D846C6
:102EE0000323C500630403000C490283828041115F
:102EF00022C42A862A84254506C6EF00B034631B07
:102F000005001C4023A4070023A00700B240224470
:102F1000410182807D55DDBF411122C426C206C613
:102F20000441034555002E84312599679305803E61
:102F30009387771A3355B50263EF8702330485020E
:102F40003354B4029C4493E727009CC4A94763739D
:102F5000F400294480C09C44B2402244F99B9CC4A4
:102F60009C44014593E717009CC49C44ED9B9CC482
:102F70009244410182803354B4023304A402D9B78D
:102F80001C41C84382801C4188438280411106C68F
:102F900022C42A844CC510C92A8603454500B7358A
:102FA0000018938545ED2D2903454400EFF05F831C
:102FB0002244B2400145410182801441B70700100C
:102FC0007D56F85E098B63170700FD17E39BC7FE6C
:102FD0008CC219A0E39E07FE8280011122CC2A84B4
:102FE00026CA4AC84EC652C456C25AC006CEAE8978
:102FF000B28A368BEF00D02F00402A898144032A01
:1030000044005C40E99B5CC063DC54017C5CA18BA8
:1030100063950702EF00D02D33052541E36865FF76
:1030200023224401F240624426854249D244B249F7
:10303000224A924A024B056182801840B387990068
:1030400085042380E700EF00B02A2A8975BF397113
:1030500006DE22DC26DA4AD84ED652D4AA840041B3
:10306000034555002E896C00328AB68997D0FF0738
:10307000E780404A03C554002C0097D0FF07E78043
:10308000804F2945EF00F02F85476307F906630558
:10309000090489476304F9068D476303F9067D54E3
:1030A00003C554002C0097D0FF07E780405303C5A9
:1030B00054006C0097D0FF07E78060520C0826850B
:1030C00081464146193FD2542285F25062544259FA
:1030D000B259225A21618280954522854D2CE310F8
:1030E00005FC85476300FA04630E0A008947E3186C
:1030F000FAFA2285812C09A89945C5B79D45F1BFEB
:10310000A145E1BF22850D24E31B05F885476389AE
:10311000F900638C09008947E393F9F8E31109F892
:10312000894529A022858924C5B785452285D922CC
:103130003335A0003304A040A5B71841930710040D
:10314000FD1793F7F70F6393070082801443CDBFF9
:10315000411122C42A862A84054526C206C6EF00EC
:10316000700EAA84631A05021C401307700822859A
:1031700098C7D84323200402232C0400232E0400E4
:10318000232A04002322040223240402759BD8C3AB
:10319000D843699BD8C35537B24022442685924410
:1031A00041018280411122C42A862A84294506C60B
:1031B000EF005009631D05001C4023A0070023A257
:1031C000070023A60700B2402244410182807D55BA
:1031D000DDBF011122CC06CE0041034555002EC6AD
:1031E000A12E9307803E3355F502B24581478546AF
:1031F00041473305B50241813396F600637AA60054
:103200008507E39BE7FE7D55F240624405618280BD
:103210001840799B18C058406D9B58C058403E9745
:1032200058C0584092071377F7FB58C05840BA97D8
:103230005CC01C40858B638907001C4093E7170026
:103240001CC0930760075CC401457DBF1C4101455C
:1032500098431367170098C313076007D8C7828085
:1032600008414D813D89050506058280411102C452
:1032700002C6A14763F6C70241018280B386F5000A
:1032800083C6060038003E972300D7008507E31762
:10329000F6FEA2472324F50AB2472326F50AE9BF22
:1032A0008147F5B78147B7060070785D058B6308E5
:1032B00007006394D7007D5582808507FDB73705E9
:1032C00000903E95133515003305A04082803707E6
:1032D00000705C4993F71708639707007C5D858B46
:1032E00063930700C1B75C491C417D17E31307FED8
:1032F0007D558280011122CC06CE2A842EC6C13F84
:1033000063190500B24585476399F5005C44ED9B60
:103310005CC4F2406244056182808947E39BF5FE0C
:103320005C4493E74700EDB7411122C406C62A84E6
:10333000793F631505005C44DD9B5CC4B2402244C8
:1033400041018280411122C406C62A84493763198B
:1033500005005C4493E787005CC45C44BD9B5CC48F
:10336000B240224441018280411122C406C62A840F
:10337000B93F631A05005C4493E787005CC45C4472
:1033800093E707015CC4B2402244410182800111ED
:1033900022CC06CE2A842EC61D3F5C44B245F240A4
:1033A00093F7C70F5CC45C44ED15DD8D4CC46244DB
:1033B000056182800F00F00F0F00F00F0B0000017D
:1033C0000F00F00F0F00F00F82800F00F00F0F00C2
:1033D000F00F0B0010000F00F00F0F00F00F8280B5
:1033E000B72700200CC60A05938787093E9510C1B0
:1033F0008280411122C4372400208327440926C239
:1034000006C68507232AF408EFF0EFBE93172500C0
:103410003727002013078709BA97AA8488436302D5
:1034200005021C45638F0700829783274409B24039
:103430002685FD17232AF4082244924441016FF0A7
:103440002FBCEFC0FFDFD5B7B7B500181386C1F3A7
:1034500093874541630CF600938701003386C7408C
:10346000938545411385C1F36FE0DFE58280B7B7EF
:1034700000189385C1F3938747416385F50213874D
:10348000010037050020BA97371700201306450CB6
:103490001307C7963306C740B385B7401305450CDD
:1034A0006FE05FE2828037150020B73700201306F7
:1034B000C5969387C7313386C74081451305C596A6
:1034C0006FE01FEF411106C6EF10702AB2404101B4
:1034D0006F604049797106D6F3270030737004306D
:1034E00081452800C13181452800E5312800B93BDC
:1034F00001A0B707004083A7C75003A5C1FFBD8B3C
:1035000085073385A7028280EDB7B7070040631EA9
:10351000050003A507191D810D898547B397A700ED
:1035200003A5C1FF3355F502828003A50719298140
:10353000E5B7E1BF0581D1BF0145C1BF584185470E
:103540006316F70A1C456391E71EB7070040D8577A
:10355000B706F4FFFD16758FD8D7D857B706080001
:103560003706D0FF558FD8D7D4577D165845F18EE2
:10357000D4D7D45752070176558FD8D7D457184986
:103580007D06819AD4D7D457558FD8D7D457584968
:10359000F18ED4D7D4571607558FB7060200558F32
:1035A000D8D703A747108966558F23A2E71003A732
:1035B00047109166558F23A2E71003A707101367E2
:1035C000270023A0E7103707004083270710898BC7
:1035D000E39D07FE370700401C4FA18BE38E07FEDB
:1035E000370700401C4FC18BE38E07FE1C4D11476F
:1035F000639DE71CB707004003A747106D9B23A2FC
:10360000E71003A747101367870023A2E71003A75B
:1036100007101367270023A0E71037070040832710
:103620000710898BE39D07FE5C4D09476392E724F1
:10363000B707004003A74710FD769386F67F137700
:10364000F7BF23A2E71003A74710758F23A2E71047
:1036500003A747101367071023A2E71003A747101B
:10366000799B23A2E71003A707101367270023A065
:10367000E7103707004083270710898BE39D07FE7B
:10368000370700401C4F858BE38E07FEB7070040CD
:1036900083A6C7501851C19A23A6D75083A6C750F6
:1036A0007D17558F23A6E75003A7C750136707015F
:1036B00023A6E75003A7C750418BE31D07FE83A64F
:1036C000071958517D7693F6F6E723A8D71883A6F5
:1036D00007191E071306F63F558F23A8E71883A680
:1036E00007191855F18E23A8D71883A607192A079A
:1036F000558F23A8E71898571367170098D7B7076F
:1037000000409857058BE31E07FE03A74751B706F5
:1037100002000145558F23AAE75003A747511367BD
:10372000074023AAE7508280E39207ECB7070040E6
:10373000D857B706F4FFFD16758FD8D7D857370678
:10374000D0FF7D16D8D7D4575845F18ED4D7D4574B
:1037500052070176558FD8D7D45718497D06819ADC
:10376000D4D7D457558FD8D7D4575849F18ED4D7FA
:10377000D4571607558FB7060200558FD8D703A721
:10378000471091661367072023A2E71003A747108D
:10379000558F23A2E71003A707101367270023A064
:1037A000E7103707004083270710898BE39D07FE4A
:1037B000370700401C4F898BE38E07FE3707004018
:1037C0001C4FC18BE38E07FE15B50547639AE704CE
:1037D000B707004003A747108966558F23A2E7105B
:1037E00003A747101367470023A2E71003A747105A
:1037F0001367870023A2E71003A7071013672700AA
:1038000023A0E7103707004083270710898BE39D2B
:1038100007FE370700401C4FA18BE38E07FE29B53A
:10382000E39407E0B707004003A74710136707209A
:1038300023A2E71003A74710759B23A2E71003A755
:1038400047105D9B23A2E71003A70710136727000B
:1038500023A0E7103707004083270710898BE39DDB
:1038600007FE370700401C4F898BE38E07FE6DBBB8
:103870000D47E39DE7E0B707004003A747108566C3
:10388000938606801367074023A2E71003A747101B
:10389000558F23A2E71003A747101367170023A231
:1038A000E71003A707101367270023A0E7103707C7
:1038B000004083270710898BE39D07FE37070040F0
:1038C0001C4F918BE38E07FED1B3397122DC37A4F4
:1038D00000181307840C06DE81471304840CF1469C
:1038E0001043630AA6008507C207C1831307C702F6
:1038F000E398D7FEA9471307C002B387E702480041
:103900003E945C403EC41C443EC65C443EC81C48D9
:103910003ECA5C483ECC1C4C3ECE5C4C3ED01C505B
:103920003ED25C503ED41C543ED609391840F25069
:10393000625423AEE1FE21618280F327007C3707C9
:103940004000D98F7390077C828041119145454595
:1039500006C697C0FF07E7802077B24091454945EA
:10396000410117C3FF0767002376411106C622C431
:10397000E9370F00F00F0F00F00F8D477390177CA1
:103980000F00F00F0F00F00FC134D5343D3C1D3453
:10399000193E370780E05C43B70680E00565D183B8
:1039A000F98B2300F70085450147130600049317A0
:1039B0002700B697AA97A380070005072380070072
:1039C0002381B700E315C7FEDC42B71680E003C7CA
:1039D000B604D5830D4513F7F700A147998F0D471E
:1039E000B317F70093F7F70FA385F6042387E600D4
:1039F000EFE01FDF736004303705B80BF93537246B
:103A00000020EFE0FFDC37250020814513058515F8
:103A1000EFE03FD069200146814513054417EFF0E0
:103A2000EF81914513054417EFF06FBCB7F5FA022B
:103A30001305441793850508EFF0EFC52244B24003
:103A4000410121B7B7A700184205938707EA4181D2
:103A500093F5F50F9843631407007D55828083D654
:103A600067006396A60083C657006384B600A1076B
:103A7000D5B7E30406FE18C283C747002313A60088
:103A8000A302B6002302F60001458280B71700208A
:103A90009387C7CB9843050798C38280C5BF411160
:103AA00022C4B7170020371400208145130544CCE9
:103AB00006C623AE07CAEFF08FC363170502B745EA
:103AC000001801469385C5A9130544CCEFF00FCC2F
:103AD000631C0500130544CC2244B24089659385DC
:103AE000057141016FF04FC3B24022444101828011
:103AF00079714AD237190020930709CC4ED0B719F3
:103B00000020138549CC22D452CE56CC5EC862C662
:103B100006D65ACA8043130A4006EFF0CFC6330ACE
:103B20004503930A803E130909CCB71B0020294C9A
:103B3000B35A5A0363090A029387CBCB138549CC46
:103B400003AB0700EFF02FC42A84138549CCEFF0B4
:103B50002FC3098C8327090033545403330B8B0381
:103B60005A94E369F4FC232089002285B250225440
:103B700012598259724AE24A524BC24B324C456149
:103B80008280011122CC26CA56C25AC006CE4AC82B
:103B90004EC652C41304F5FFFD5AB7140020130B90
:103BA000803E631C5401F2406244D2444249B2490F
:103BB000224A924A024B05618280138544CCEFF081
:103BC0008FBC2A89138544CCEFF08FBBAA890145AD
:103BD000EFF05F96335A65034E99138544CCEFF0AE
:103BE0002FBA637835013385A940E36845FF7D141A
:103BF0004DBF3305A940D5BF011126CA06CE22CC40
:103C00004AC84EC652C456C25AC0AA84F3252034AC
:103C100037A5001893F5F53F13058559EF10201CC3
:103C200026892945EF10601A0144B7AA00180D4BE8
:103C30007D4A0326090093091400CE8513850A5B8B
:103C40000D88EF10C019631564012945EF10E017C6
:103C500011094E84E39F49FD2945EF100017EC5CE4
:103C600037A500181305C55BEF10601783A504087E
:103C700037A500181305C55CEF106016B7270020A4
:103C800083A7C71C63830700829701A0411106C662
:103C90000686B240AA85372500201305051D41017F
:103CA0006F10C037411106C60686B240AA85372577
:103CB00000201305051D41016F10C0198280797124
:103CC00026D24AD04ECE52CC56CA5AC85EC662C41C
:103CD00006D622D466C2BE8493F738002A8AAE8AFA
:103CE0003289368B3A8CC28BC689638907043304C8
:103CF00096002285330694406395040493F92900C5
:103D000033042441639F0904B2502254925402594F
:103D1000F249624AD24A424BB24B224C924C456124
:103D20008280DA86D68513050002930C1600029A6B
:103D30006686B307C400E3E677FF55BF3384C4400B
:103D4000CDBFFD14B3079C0003C50700DA86D685F6
:103D5000029A45B72A86DA86D68513050002029AAA
:103D6000050433058900E36774FF79BF4683A248E1
:103D7000428E824E13FF2800124863160F0413FF71
:103D80001800630B080063090F0063160E0093FF11
:103D9000C80063830F007D18930F00029302000395
:103DA00031A0B303F70023805300850763F4D701E4
:103DB000E399F7FFFD4F9302000363060F0063F4DE
:103DC000070163F4FF0413FF080163020F0813FFE8
:103DD000084063130F04638107046384D701639D64
:103DE0000703938EF7FF63880E02414FF9176308AC
:103DF000E303F687894E6312D3057D436365F306BB
:103E00003303F700930E200635A0B303F700238099
:103E1000530085075DB78147C14EE31DD3FD13F302
:103E20000802631303047D43636FF3023303F70057
:103E3000930E80072300D30185077D436365F3025A
:103E40003303F700930E00032300D30185077D435E
:103E5000636BF30063020E023303F700130ED0020C
:103E60002300C3018507A1BD7D43E36EF3FE330349
:103E7000F700930E80057DBF13F34800630703002E
:103E80003303F700130EB002E1BF13F38800E30C15
:103E900003FC3303F700130E0002D9B7397106DEB5
:103EA000964E6314070093FEFEFE13F30E40630468
:103EB00003006307070413FE0E02130310066304D6
:103EC0000E00130310043A8F930F01010147A54020
:103ED000130E63FF93030002B3720F0313F3F20F89
:103EE00063EE5002130303031373F30F23806F0079
:103EF000050733530F0363650F01850F631E7700BA
:103F0000064346C076C41AC2C2883E88BA871808DB
:103F1000B13DF250216182801A8F7DBF7293E9B763
:103F20007571A6DACED6D2D4D6D2E6CAEAC8EEC623
:103F300086DEA2DCCAD8DAD0DECEE2CC2ACA46C7F8
:103F40003A8D5D8FAE89328AB68ABE84CA4DFA4CEC
:103F50006314070093FCFCFE93F70C406385070095
:103F6000014C6309070693F70C02130410066384DF
:103F700007001304100413090102014CA54B591446
:103F8000130B00024686EE866A85A68542CE46CC95
:103F9000EFC04FE31375F50FE248724863EAAB06D2
:103FA000130505031375F50F2300A9004686EE8659
:103FB0006A85A68542CE46CCEFC06FAA050CE248C2
:103FC000724863E9B40163949D0063651D010509AE
:103FD000631D6C03EA47524566C43EC2DA471810B7
:103FE000D6863EC05286E287CE8549336654F65067
:103FF000D6544659B659265A965A065BF64B664C25
:10400000D64C464DB64D496182802A8DAE849DBF07
:10401000229549BF630405006F50901D8280357161
:10402000E2DCE6DAEAD8EED62A8CAE8C328DB68D9A
:104030003A86BE863A85BE8526CB4AC94EC756C348
:10404000DEDE06CF22CD52C55AC13A89BE89C2846E
:10405000C68B8A5AEFD04FC1630F050037A70018EF
:10406000D6885E888D4713074768EE866A86E685A0
:104070006285B1316DA0B7A7001803A6076583A6B6
:1040800047654A85CE85EFD04FD0635A050037A7E4
:104090000018D6885E88914713078768F9B7B7A7D5
:1040A000001803A6876583A6C7654A85CE85EFD02D
:1040B0008FC26354A00293F74A00638A070037A7B0
:1040C00000181307C7679147D6885E8879BF37A75E
:1040D0000018130787678D47C5BFB7A7001803A649
:1040E000076683A647664A85CE85EFD0CFBE634E6E
:1040F000A000B7A7001803A6876683A6C7664A85EF
:10410000CE85EFD08FC8635B050256C0DE88268857
:104110004A87CE87EE866A86E6856285512CFA400C
:104120006A44DA444A49BA492A4A9A4A0A4BF65B2F
:10413000665CD65C465DB65D0D6182800146814657
:104140004A85CE85EFD06FC4635B05104A86CE8664
:1041500001458145EFD05F932A898547AE893ECEE0
:1041600093F70A40638F070E0144A5471307000326
:104170009306000263FA9700900022962300E6005F
:104180000504FD14E318D4FECE854A85EFD01FF157
:104190002A8B37A700181307076993973400BA973B
:1041A0009843DC433AD03ED2EFD09FFB2A86AE86BE
:1041B0004A85CE85EFD05F8D02569256EFD02FC83C
:1041C0002ED62AD4EFD0FFF32A8AEFE02F802A865A
:1041D0002257B257AE863A85BE85EFD0FF8A2ADCD9
:1041E00037A8001803270867832748672EDE3A861A
:1041F000BE863AD83EDAEFD00FAE37A8001842D4C8
:104200004257D2576253F253635FA004050A5285A6
:10421000EFD0DFFB2A86AE8602559255EFD0EFB67F
:104220006344A000050B014A638F04049306000257
:10423000294725466313D40A13F73A0085476319C3
:10424000F71263870B12F2476396070093F7CA00D1
:1042500063830700FD1BFD471307000309A202CE7D
:1042600001B7994411B73A86BE861A859E85EFD06C
:10427000CFB1E34B05FA63060A0093771A00E38592
:1042800007FA050A55B75A85EFD09FED2A86AE8604
:104290004A85CE85EFD04FFF2AD0A2572ED203A950
:1042A000076783A947674A86CE86EFD00FAE635C67
:1042B0000500025792574A86CE863A85BE85EFD0D2
:1042C0008FA16357A00093771B0063830700050B42
:1042D000A28713060002A9468DA89C00B38587001B
:1042E000B377EA02FD140504938707032380F500E2
:1042F000B357EA0263654603A294930600021306CD
:104300000003E30BD4F213071400631C94009C1009
:104310003E949307E0022300F4FE3A8455BF3E8AA0
:1043200011BF9C003E942300C4003A84D9BF98007A
:10433000BA973367DB020504334BDB02130707032D
:104340002380E700A287E3090BEEE312C4FE130407
:104350000002DDB59400A2962380E600050463798F
:104360007401E3F987FED6885E88A2879800F5B9C4
:10437000FD47E3EA87FEF247638A07009C10A29795
:104380001307D0022380E7FE0504F1BF93F74A002C
:10439000638707009C10A2971307B002E5B793F755
:1043A0008A00E38207FC9C10A29713070002D9BF82
:1043B0005971DEC6E2C4E6C26EDEAA8B2E8CB28DC7
:1043C000B68C3A86BE863A85BE85CAD0D2CCD6CACD
:1043D000DAC8EAC086D6A2D4A6D2CECE3A893E8B1F
:1043E000C28A468D465AEFD02F88631A0502B7A7B6
:1043F000001803A6876583A6C7654A85DA85EFD0CE
:104400008F8D634EA000B7A7001803A6076583A68B
:1044100047654A85DA85EFD04F97635A05022654DF
:10442000D2D8B6509654F649664AEA885688064D60
:10443000D64A4A87DA870659464BE6866E86964CF8
:10444000F25DE2855E85264CB64B6561C9BE0146CC
:1044500081464A85DA85EFD04F934ACE5A84635617
:104460000500370400803344640193770A403EC856
:1044700063930700994A135544011375F57F13059B
:1044800015C0EFD0FFCDB7A7001803A6075E83A61F
:10449000475EEFD0CF9AB7A7001803A6875E83A622
:1044A000C75EEFC06FC72AC8B7A700181317C400AC
:1044B000318303A6075F83A6475FB707F03FD98F15
:1044C0002ECA4A85BE85EFD02FDCB7A7001803A6F9
:1044D000875F83A6C75FEFD08F962A864243D24379
:1044E000AE861A859E85EFC02FC3EFD03FBBAA8949
:1044F000EFD01FC72AC8B7A6001803A6066083A678
:1045000046602ECAEFD0AF93B7A6001803A6066781
:1045100083A64667EFC04FC0EFD05FB8AA8442477A
:10452000D247B7A6001803A6866083A6C6603A8560
:10453000BE85EFD0CF902AC826852ECAEFD05FC2A5
:104540009384F43FB7A6001803A6066183A64661CC
:10455000EFD0EF8E2A864247D247AE863A85BE8597
:10456000EFD08FD22A86AE862AD02ED2EFD02F8DD2
:104570002AC8025792572ECA3A86BE863A85BE8509
:104580003AD43ED6EFC04FB92AD0B7A6001803A63A
:104590008661424583A6C6612ED2D245EFC0DF9820
:1045A00037A800180326086283264862EFC0CFB6FA
:1045B0002A86AE864245D245EFC01F97B7A600189F
:1045C00003A6866283A6C662EFC00FB52A86AE86B2
:1045D0004245D245EFC05F952ECAB25722572AC82E
:1045E000BE86B7A7001803A5076383A547633A866D
:1045F000EFD08FC92A86424ED24EAE867285F6859E
:10460000EFC08FB12A8602539253AE861A859E85DB
:10461000EFC09F91B7A7001803A6876383A6C7635F
:10462000EFC08FAF0147939744013A86BE86EFD023
:104630000F812A86AE862AC82ECA4A85A285EFC077
:10464000DFF44247D24737A80018635D0500032610
:104650000862832648623A85BE85EFC0FF8CFD194B
:104660002AC82ECA9307600C93843906B3B4970006
:1046700093174A01910463D30704B7A7001803A650
:10468000076483A647644A85A285EFC0DFE46349D7
:104690000510B7A7001803A6876483A6C7644A85D8
:1046A000A285EFC09FEE635D050E63D9590FB38AF3
:1046B0003A41FD1A136A0A4081448149814863F4F2
:1046C000A401B3089D4093772A003ED0638507007C
:1046D000638304008148638C09004246D246A28568
:1046E0004A8546D4EFC05F842ACEA2582E84014664
:1046F00081464A85DA8546C8EFC03FE9C24863551E
:104700000500B70700803D8CFD7772469387F77FE1
:10471000B377FA003EC0328756886E86A287E68657
:10472000E2855E85EFF0BF8F2A8663890404137AE1
:104730000A021305500463140A0013055006E686A6
:10474000E28513041600829BFD1413D7F941B3468A
:104750003701954722863EC23387E64093D7F90159
:1047600026C081482948E686E2855E85EFF00FF392
:104770002A8682573304B54163920704B650265403
:1047800096540659F649664AD64A464BB64B264CCD
:10479000964C064DF25D328565618280814A19BF73
:1047A000E38E0AF093770A40E38A07F0FD1A39B7DF
:1047B000E686E28513050002829B050433868D00A0
:1047C000E368A4FF65BF1D71A6CACAC8CEC6D2C41D
:1047D00062DC86CEA2CCD6C2DAC05EDE66DA6AD8E9
:1047E0006ED62E8AB289B6843A8C2A8963960500E1
:1047F000374900181309C9CB856A93870A80416B32
:104800003ECA9307FBFF814D3ECCA94B45A49307BD
:10481000500285046308F50013841D00CE866E8661
:10482000D2859DA281451307B0021306000313052C
:1048300000021308300211A81304D002638D87020E
:104840006391C70293E51500B68483C7040093867D
:1048500014006385E702E361F7FE6384A7026385C2
:104860000703138707FD1377F70F25466368E606EE
:10487000814CA54625A093E52500F9B793E54500B1
:10488000E1B793E58500C9B793E5050175BFB38826
:104890007C03B284938808FDB30C170103C704009E
:1048A00013861400930707FD93F7F70FE3F1F6FE65
:1048B00003C704009307E002631BF70E83C61400CE
:1048C000254693871400138706FD1377F70F93E5AA
:1048D0000540636EE60A014D254615A81307A002A0
:1048E000814CE397E7FC832C0C0093074C0063D6C4
:1048F0000C0093E52500B30C90413E8CB6844DBF6F
:1049000033037D03AA87130303FD338D660083C63B
:10491000070013851700138706FD1377F70FE37160
:10492000E6FE03C707009306C00693841700630ED4
:10493000D70863E1E608930680066301D70A930669
:10494000A0066307D70ABE8403C504009307500678
:104950008504630DF52C63EFA718930770046307B4
:10496000F52C63EAA708930750046301F52C63E76D
:10497000A72893075002E311F5EA13841D00CE86A1
:104980006E86D285130550020299A28D05A21307E7
:10499000A002014DE397E6F8032D0C0013074C002D
:1049A00063530D00014D938724003A8C9DBFA68769
:1049B000014D85BF930640076306D7009306A00705
:1049C000E313D7F893E5051041B783C61700E39BBF
:1049D000E6FE93E5053093842700BDB783C6170034
:1049E0006385E60093E5050885B793E5050CE5B713
:1049F00093E5052091BF930720066308F50063E463
:104A0000A70E93078005E319F5E09307800763037A
:104A1000F53893078005630DF5369307F006630DAF
:104A2000F53693072006630BF53693079006BD997C
:104A300029486307F500930740066303F500CD9905
:104A400093F7054063830700F9991307900693F7DE
:104A500005206306E500130740066312E51463872B
:104A6000070E1D0C137C8CFF03254C0083270C00C4
:104A7000C2889356F541B58F3387D74033C6A60019
:104A8000B3B7E700B306D64013048C002EC666C445
:104A90006AC202C01358F501B387F640CE866E860F
:104AA000D2854A85EFF0CFC7AA8D228C03C50400BA
:104AB000E31F05D46E8663E43D011386F9FFCE86BD
:104AC000D285014502996644F6406E85D644464932
:104AD000B649264A964A064BF25B625CD25C425D5E
:104AE000B25D25618280930730066302F518930753
:104AF000400611BF9307F006E309F5F063EBA7004A
:104B0000930770066304F512636AF50E9307900627
:104B1000DDBD93073007630BF51A63E2A702930725
:104B20000007E31BF5CE93E51502A14703270C0010
:104B300013044C002EC23EC0EA88414871A8930776
:104B40005007E304F5EC9307800775BD93F7051054
:104B500013044C006385070283270C0013D7F74129
:104B6000B346F7002EC266C0EA88FD833387E6406D
:104B7000CE866E86D2854A85EFF04FB235B713F7F1
:104B8000050483270C006305070093F7F70FF9B7B7
:104B900013F70508E30407FCC207C187C1B76382A6
:104BA00007021D0C137C8CFF03270C0083274C008D
:104BB000C28813048C002EC666C46AC202C00148B3
:104BC000F1BD93F7051013044C0063890700032718
:104BD0000C002EC266C0EA88814759BF93F70504CE
:104BE00003270C00638507001377F70FDDB793F7F2
:104BF0000508E38007FEE2477D8FE1BF930760046D
:104C00006314F50093E505021D0C93778CFF984320
:104C1000138C8700DC43E6882EC06A88CE866E86B9
:104C2000D2854A85EFF0AFBFAA8D49B59377F50DD0
:104C3000130770046396E700D2471375D50FDD8D17
:104C4000930750046314F50093E505021D0C937758
:104C50008CFF9843138C8700DC43E6882EC06A885B
:104C6000CE866E86D2854A85EFF08FF475BF13F439
:104C70002500630004046E86854A03450C00CE8639
:104C8000D285130D4C00930D1600029963040400A5
:104C900063E39A036A8C19BDCE86D28513050002A0
:104CA00002993306BD01930A2D00050DE3669DFFB1
:104CB000E9B7014DFDB76E8613841D00CE86D285FF
:104CC000130500020299850AA28DD9B793074C00FB
:104CD0003EC8032B0C00EA8763130D00FD57330712
:104CE000FB00DA8783C60700638406006313F702BC
:104CF00013FC0540B387674163050C006373FD0037
:104D0000EA8713F42500BE8A63160402338EFD4041
:104D100021A88507C1BF72CECE866E86D2851305C7
:104D200000020299724ED687B30DFE00938A1700D7
:104D3000E3E397FF6E8611A83E8D930716003ECEE3
:104D4000CE86D2850299F2473E86B307B641DA97FE
:104D500003C5070063080500E3010CFE9307FDFF90
:104D6000E31C0DFCB28D63120402424C81B36E86CB
:104D7000138C1D00CE86D285130500020299E28DA8
:104D8000B307B401E3E597FFCDB73384CA40CDBF85
:104D900093E50502414865B1214871B9094861B9F7
:104DA000411122C406C62A8403450400FD55631A36
:104DB00005002945EF4070402244B24001454101C1
:104DC0008280EF40903F0504C5B741111375F50F80
:104DD00006C6EF40F041B240014541018280397181
:104DE00036D6AA86374500182ED232D43AD82C00AF
:104DF00058107D561305450106CE3EDA42DC46DEEC
:104E00003AC6EFF05F9CF24021618280011122CC12
:104E10002A8488412EC606CE6D2405051205130787
:104E2000850022972A941C48B24563880700944362
:104E300063850600904163ECC6000CC7D8C59CC5CD
:104E400063830700CCC7F2406244056182803E87DD
:104E50009C47E1BF63850508938785FFD04303A87E
:104E600085FFBE880606B38607010582D0C303A36B
:104E700046003687634D030203A3060003AEC60057
:104E800083AE8600338766002324DE019446638464
:104E9000060023A6C6011A9803234700B706008020
:104EA00023AC05FFB3F66600B3E6060154C3918F49
:104EB000D44363C40602D047944714C663830600F4
:104EC000D0C6944303A685FF4C43BE883696B706EA
:104ED000008090C3ED8ED18E54C3C68505BF8280FD
:104EE0009387F5002E964C45C19B419A3307F640B7
:104EF000BA954CC51CC92148B7080080411798C70E
:104F000023A0070123A217019385870023A205018F
:104F1000930786FF5CC933671701232C06FF232EF6
:104F2000E6FEEDB5411122C426C24AC006C62A8457
:104F300023260500AE8432898145130600136105DE
:104F4000EFD00FC79307840213078414938607FFDB
:104F500023ACF7FED4C7C107E39AE7FE22852244BB
:104F6000B2404A86A68502499244410195BFB75591
:104F70000020B7070320138605B293870700372563
:104F800000203386C740938505B21305051D59BF20
:104F90001849032345010146814781480148636D53
:104FA00067005845A10723A2150198C123A4050154
:104FB000DCC590C901458280032E47001443635528
:104FC0000E00B6973697E1BF85083696E37CD8FE8B
:104FD0003688CDBF79716C0022D406D6553F371480
:104FE00000208327C4CDE2451304C4CD63D3B702A8
:104FF000B70703203757002093870780130707B2AE
:105000000CC0998F63E7F50037A500181305056EEE
:10501000F9330840B250225445618280411122C4C4
:1050200006C626C24AC00144638D0502DD0593F41D
:1050300005FFB70740002A89494563F4F400268537
:105040004920930715009207CA97804B6314040206
:1050500037A50018A68513054570513301444A85CC
:10506000953F2285B2402244924402494101828008
:105070003A84E9BF1C401844E3EC97FE544498C6B8
:1050800018446303070054C7B38697403D476370D5
:10509000D702A297B3059400C4C1D04394C1370787
:1050A000008004C0718F558FD8C34A8585335C401A
:1050B000370700802104D98F232EF4FEE31104FA70
:1050C00041BFB7074000637CF50093574500054793
:1050D00001456363F700828005058583DDBF49458F
:1050E0008280638C0502011106CE22CC26CA2E8452
:1050F000EF108023AA844C00EF10802A2685EF1041
:10510000C027D244B247F24001451CC4A2475CC04C
:1051100092471CC06244056182807D5582800111E6
:1051200022CC2A84014506CE26CA2EC632C4EF10F0
:10513000A01FAA84B245A2462E86A285EF10A02801
:105140002A842685EF106023D2442285F2406244EF
:1051500005618280011122CC2A84014506CE26CA2F
:105160002EC632C4EF10401CAA84B245A2462E8639
:10517000A285EF1020282A842685EF100020D24433
:105180002285F240624405618280011122CC2A848A
:10519000014506CE26CA2EC6EF100019AA84324653
:1051A000A285EF1000282A842685EF10001DD24426
:1051B0002285F240624405618280B7A5001837A5B8
:1051C00000184111938545721305C57206C6013951
:1051D00037A60018B7A5001837A500181306C67320
:1051E0009385857413054575EFF07FBFEF0030633D
:1051F0006344A00237A5001813054576EFF05FBAA7
:1052000037A500181305C577EFF09FB9EF4040753B
:10521000B240014541018280C920EF408065CDB791
:1052200037A5001839711305C57A06DE22DCEFF0C8
:105230003FB702C80C086800EF00903963580502B8
:10524000B2452A8437A500181305857CEFF03FB9D5
:1052500037B500181305C582EFF09FB4F957631BEB
:10526000F4062285F25062542161828032454C0856
:10527000EF008070635A050037A500181305857E7E
:10528000EFF01FB27D54E9B7B24642464C087D5557
:10529000EF0070132A84635D050037A5001813051D
:1052A000C57FEFF0FFAFF157E304F4FA79544DB73F
:1052B0003245EF00606A2AC602C8E31905FA7D5537
:1052C000EF00C072E31405FE37B500181305058121
:1052D000EFF01FADE5212A8469B737A50018411109
:1052E0001305C57806C622C426C2EF00B06BAA8497
:1052F000EF00306958451C45035645010C493305FC
:10530000F700F9212A84630E050037A5001813055C
:105310004579EFF0FFA82285B24022449244410132
:1053200082801923FD57630DF500DD3D63080500FC
:1053300037A500181305C57FEFF09FA6EF40406228
:105340002685EF00B06FC1BF797126D2AA842E8561
:1053500006D622D44AD02E844ECE52CC3289EF10BB
:10536000204C330AA4002285EF10804BB30995002E
:1053700083270A00CA8526853EC6013D63010502D2
:1053800037B500181305458BEFF09FA17D55B2503E
:10539000225492540259F249624A456182801306AE
:1053A000C9FF93054400138544006D33630705006E
:1053B00037B500181305458CC1BF11466C004E85EA
:1053C000513BE30605FC37B500181305858D6DBF0D
:1053D0001D71DAC085472E8BD6C29CC2AA8A6C008A
:1053E0005A85A2CCA6CA86CECAC8CEC6D2C45EDEB4
:1053F0003284B684EF106044631105141848F247F4
:105400006312F70458488257631EF702184C9257EC
:10541000631AF702584CA2576316F70203470402B7
:105420008347C1026310F702034714028347D10286
:10543000631AF70021464C0813058400EFD06F89EA
:10544000630D050E83D4CA002685EFE03F842A89C8
:10545000631A050037B5001813054584EFF05F9413
:10546000FD59C1A026868145EFC09FF403A54A00DF
:105470002686CA856D31AA896309050037B50018EB
:1054800013058587EFF0DF91ADA8835B4901930495
:105490008905014A63537A072146DA852685EFD0CC
:1054A0004F8363190506034514028A85EFF07FC315
:1054B00021469305840013858400EFD0AF8D834788
:1054C0000402584803D6CA002388F4008347140214
:1054D00003A58A00CA85A388F4001C481D8F258374
:1054E0002399E4000247998FA583DCC81C4C9CCC0F
:1054F0005C4CDCCC913D631A050083574901639FE6
:1055000047014A85EFE00FFAA1BF37B50018130530
:10551000C5858DBF93840402050AADBF4A85EFE0BF
:105520006FF8F64066444E85D6444649B649264A49
:10553000964A064BF25B2561828023A004008149D4
:10554000CDB741114AC00359C50026C2AA844A8575
:1055500006C622C4EFE08FF3631A050037B50018C2
:1055600013050589EFF0DF83FD54B9A04A86814514
:105570002A84EFC0FFE388444A86A285EFF03FBA51
:10558000630C050037B500181305458AEFF05F81FD
:105590002285EFE02FF1C9BF03D6C400C840A28521
:1055A0006533AA846307050037B500181305C58560
:1055B000F1BF2285EFE00FEFB24022442685024979
:1055C0009244410182805971D2CC032A4500A6D26F
:1055D000CECE86D6A2D4CAD08547AA84D289639477
:1055E000F5008329850003D9C4004A85EFE00FEA5E
:1055F0002A84631A050037B5001813054584EFF0B7
:105600002FFAFD546DA04A868145EFC07FDA4A86A5
:10561000A2855285EFF0BFB0630C050037B50018C6
:1056200013058587EFF0CFF72285EFE0AFE7D1BF15
:105630002C000808EF00301A130984012247930751
:10564000000463F5E7003EC4A307010422460C08EA
:105650004A85EFC03FC783554401700022859605F7
:10566000938585053309B400EF00907E8357C10010
:1056700003D6C400A28513978700A1835D8FB2472C
:105680002311E9004E8593D68701C1832300D900F9
:10569000A300F900EFF05FCBAA846307050037B5DC
:1056A00000181305C585BDBF2285EFE0AFDFB650FA
:1056B0002654268506599654F649664A65618280C5
:1056C000397106DE22DC26DA4AD84ED652D456D2BA
:1056D00085476399F60237B50018130545B2EFF018
:1056E0002FEC715437B50018130545B4EFF04FEBAC
:1056F0002285F2506254D2544259B259225A925AD7
:10570000216182802A8A37B50018130545B63AC64A
:10571000AE8A32893684EFF0AFE83247637A2701E8
:1057200037B50018130545B8EFF08FE77D54C9B7BA
:10573000BA855285EFF07FA56307050037B50018DD
:105740001305C5B9D5B74C08EFF0BF99E2494E85AE
:10575000EFE0CFD3AA846318050237B5001813050C
:105760000589D9B74E86A685EFF07F9B63140504A3
:105770004E86A68533058A00EFF0DF9D631C050287
:105780004E943309394133055401E3ED29FD4A862E
:10579000A685EFF0DF98631F050033058A004A866F
:1057A000A685EFF03F9B2A84631605002685EFE06F
:1057B0006FCF3DBF2685EFE0EFCE8DBFB71700203E
:1057C00083A5C7CEB717002003A507CE6FF0FF9BB8
:1057D000B717002023A0A7CE931716003E95B71742
:1057E000002023A2A7CEB717002023A4C7CEB71747
:1057F000002023A6B7CEB71500204111056693857A
:1058000005CF22C406C6EFF09F917D5463190500B1
:105810002A84EF104025B727002023ACA73022852B
:10582000B240224441018280130101DD2324812200
:1058300037140020032704CF23229122B75747456E
:105840002326112223202123232E3121232C412101
:10585000232A5121938797D4FD54631EF70293079F
:1058600004CF03C757009547130404CF63E5E7024D
:10587000B717002003A507CE11460C0AEFF03F8AA8
:10588000631B050003270111B7B747749387A7BBB4
:105890006315F70285448320C122032481222685D3
:1058A00003290122832441228329C121032A812142
:1058B000832A412113010123828083454400B717C5
:1058C000002003A947CE639205060444B30999005A
:1058D000938A0910034A64005285EF00B0472A8476
:1058E000130600080C0A4E85EFF07F83631D050444
:1058F00022860C085685EFF09F82631605042686E3
:10590000CA858147780014095285EF0070462286C7
:105910000C090808EFC07F946309050237B5001829
:1059200013054590EFF0CFC739A885476397F50079
:105930000444FD5AB309990071BF37B50018130527
:10594000C58EEFF0CFC9FD54B9B737B500181305B0
:105950004592EFF0EFC43DBFB7170020138707CF84
:105960008347C700B307F540998F3D476374F7003D
:105970004115828001458280AE86411122C42146B4
:105980002A84AA85368506C6EFC0DFC0AA86B71767
:105990000020084483A747CE37170020130707CFFE
:1059A000AA97DCC68347C40003465700238CF60041
:1059B0008347C700BA97B307F44091838507639B79
:1059C000C7001C473385A740B240224488CA7D8562
:1059D000410182801C4CFDB741111306000306C62D
:1059E000EFF0EFF3B240014541018280411122C442
:1059F0003724002003258431854506C6EFF0BFBC5F
:105A0000630D050037B500181305459EEFF04FB93B
:105A10007D55B24022444101828003258431EFF05C
:105A20005FB2E30805FE37B50018130545A0F9BFBE
:105A3000797122D426D24AD04ECE52CC5AC862C4F2
:105A400006D656CA5EC6001837190020328C0326C7
:105A500089CEB717002083A907CE9307F600C19B14
:105A60003301F140AA842E8B4E858A85EFF02FEB0F
:105A70000A8A8547130989CE6392F40E894763F831
:105A8000870337B500181305C597EFF06FB1F95BC1
:105A9000130104FDB2505E85225492540259F2491A
:105AA000624AD24A424BB24B224C45618280024745
:105AB000B7B747749387A7BBF95B631CF706B71AA0
:105AC0000020938A0ACF83C4CA0037B50018DA854C
:105AD000B3049B40B38454419180268613054599B5
