:020000041801E1
:1070000044700118000000000000000000000000B3
:107010000000000000000000000000000000000070
:107020000000000000000000000000000000000060
:107030000000000000000000000000000000000050
:10704000447001187370043097C1FE07938181BBAF
:10705000170500001305053713653500731055300B
:107060000965732005301795FE071305A5F9731000
:107070007530370510007310557C1731FF07130169
:1070800061C5EF20815CEF80710001A073250030A5
:10709000737004308280731005308280B71280E0F4
:1070A0009382C2000383020085433363730023800D
:1070B00062008280B71280E09382C20003830200E4
:1070C000854333637300238062008280BDA813016F
:1070D00041F806C00EC212C416C61AC81ECA22CC77
:1070E00026CE2AD02ED232D436D63AD83EDA42DC58
:1070F00046DECAC0CEC2D2C4D6C6DAC8DECAE2CC28
:10710000E6CEEAD0EED2F2D4F6D6FAD8FEDAF32200
:10711000103496DC17E5FE07130545BE0C41B9E9AE
:1071200097E5FE07938505928C4123A02500B7E2E1
:1071300000E09382021003A30200B70300FF9383D1
:10714000F3FF3373730023A062001705FF071305D5
:1071500065BB97E5FE079385E58E104190C103213D
:107160000600B72200009382028873A00230E65224
:1071700073901234824092412242B2424243D2433F
:107180006244F244025592552256B2564257D257A3
:107190006258F25806499649264AB64A464BD64B9B
:1071A000664CF64C065D965D265EB65E465FD65F23
:1071B0001301C10773002030000000000000000030
:1071C000611116C01AC297C2FE079382627103A3AF
:1071D0000200050323A06200854263CC6200824264
:1071E00012432101731001341731FF07130181AEDF
:1071F00021A0824212432101130181FB16C21AC44D
:10720000F3221034732320349AC096C27360043082
:1072100006C01EC62AC82ECA32CC36CE3AD03ED2BE
:1072200042D446D672D876DA7ADC7EDE1373F33F28
:107230000A0397C2FE07938222338292737004304E
:10724000864513F5F53F37E600E0130606102A964B
:107250008306060005471347F7FFB377D7002300DF
:10726000F60097C2FE079382A26703A302007D1374
:1072700023A0620063416004B72200009382028869
:1072800073A002307390253496427390123482407A
:1072900092422243B2434245D2456246F2460257E9
:1072A00092572258B258425ED25E625FF25F7321FB
:1072B000003473002030B72200009382028873A04C
:1072C0000230739025349642739012348240924279
:1072D0002243B2434245D2456246F2460257925794
:1072E0002258B258425ED25E625FF25F130181049F
:1072F00073002030711116C0F322203463C4020AD7
:10730000110197C2FE079382625D9382C2F723A0A8
:10731000120023A2220023A4320023A6420023AAA3
:10732000620023AC720023AE820023A0920223A24B
:10733000A20223A4B20223A6C20223A8D20223AA35
:10734000E20223ACF20223AE020323A0120523A221
:10735000220523A4320523A6420523A8520523AA09
:10736000620523AC720523AE820523A0920723A2F7
:10737000A20723A4B20723A6C20723A8D20723AAE1
:10738000E20723ACF2077325103423AEA20673255F
:10739000003023A0A20816858322C1FF2A8116C8C7
:1073A000EF20216B824211016FF09FE1130000007A
:1073B0001300000013000000130000001300000081
:1073C00015BF0000000000000000000000000000E9
:1073D0000000814863DA05003305A040B337A00000
:1073E000B305B0409D8DFD5863DB06003306C040F9
:1073F000B337C000B306D04093C8F8FF9D8E3288E3
:1074000036872A832E8E639F062097460200938636
:10741000A6A563FEC50AC1676374F60A9307F00F59
:10742000B3B7C7008E073357F600BA9603C70600F6
:10743000BA97130700021D8F19CBB395E500B35718
:10744000F5003318E60033EEB7003313E5001356AA
:107450000801B377CE0293150801C18113570301C8
:10746000335ECE02C2075D8FB386C503F287637CAD
:10747000D70042979307FEFF636707016375D70044
:107480009307EEFF4297158FB376C702420313535B
:1074900003013357C702C20633E36600B385E50232
:1074A0003A85637BB30042931305F7FF63660301DC
:1074B0006374B3001305E7FFC207C98F014E45A8E7
:1074C00037070001C147E360E6F6E147A9BF01E6DF
:1074D00005483358E802C1676377F80A9307F00F4D
:1074E00063F307012147B357E800BE9683C7060040
:1074F00093060002BA979D8ED1EEB3850541054EE5
:10750000135508011316080141829356030133D71E
:10751000A502B3F7A502B305E602C207DD8EBA875E
:1075200063FCB600C2969307F7FF63E7060163F5B5
:10753000B6009307E7FFC2968D8E33F7A60242038B
:1075400013530301B3D6A602420733636700B305A2
:10755000D6023685637BB30042931385F6FF6366DC
:1075600003016374B3001385E6FFC207C98F3E852C
:10757000F285638908003305F040B337A000B305F6
:10758000C0419D8D8280B70700014147E36DF8F44B
:10759000614791BF33D7F5003318D800B357F500D2
:1075A000B395D5003313D5001355080133E6B70062
:1075B000B377A70293150801C181135E0601335703
:1075C000A702C207B3E7C701B386E5023A8E63FCA0
:1075D000D700C297130EF7FF63E7070163F5D700E3
:1075E000130EE7FFC297B386D740B3F7A602420651
:1075F0004182B3D6A602C2073387D502B3E5C700DE
:10760000B68763FCE500C2959387F6FF63E7050143
:1076100063F5E5009387E6FFC295420E998D336EC0
:10762000FE00F9BD63E2D514C16763FFF6021308DB
:10763000F00F3337D8000E0733D8E6009747020023
:1076400093878782C29703C80700130E00023A98F7
:10765000330E0E4163110E028547E3EAB6F033356F
:10766000C5009347150021B7B70700014147E3E57F
:10767000F6FC6147D1B7B3570601B396C601DD8E5C
:10768000B3D70501335805013397C50193DF0601D0
:10769000B365E80033F8F703139F0601135F0F018A
:1076A00013D705013316C601B3D7F7034208336772
:1076B000E8003303FF02BE8E637C67003697938E2B
:1076C000F7FF6367D70063756700938EE7FF369710
:1076D000330767403373F703C205C1813357F7039C
:1076E00042033368B300330FEF02BA87637CE801CB
:1076F00036989307F7FF6367D8006375E80193072F
:10770000E7FF3698C20E3308E841416FB3E7FE0049
:107710009306FFFF33F3D70093D50701F18E418223
:10772000B30ED302B386D50213D70E013303C302BF
:1077300036931A97B385C5026373D700FA959356AB
:107740000701B6956360B802E31AB8D6C166FD16A4
:10775000758F4207B3FEDE003315C5017697014EE3
:10776000E377E5E0FD1799BB014E814709B58148F4
:1077700063DA05003305A040B337A000B305B0407D
:107780009D8DFD5863D906003306C040B337C00055
:10779000B306D0409D8E32833687AA872E886391A8
:1077A000061E973602009386266C63F1C50C416E67
:1077B0006377C60B130EF00F6373CE002147335E61
:1077C000E600F29683C60600130E00023697330ECB
:1077D000EE40630C0E00B395C5013357E50033133B
:1077E000C6013368B700B317C50113560301B3557B
:1077F000C80213150301418113D70701B376C802EC
:10780000B305B502C206558F6378B7001A97636552
:1078100067006373B7001A970D8FB376C702C2076C
:10782000C1833357C7023307E50213950601C98F99
:1078300063F8E7009A9763E5670063F3E7009A97B8
:10784000998F33D5C7018145638A0800B307A040EB
:107850003337F000B305B0403E85998D8280370EF6
:1078600000014147E36DC6F5614791BF01E605435D
:107870003353E30241666373C3081306F00F637367
:10788000660021473356E300B29603C80600130E84
:1078900000023A98330E0E4163190E06B385654017
:1078A0009356030113150301418113D6070133F7E2
:1078B000D502B3D5D5024207518FB305B50263781F
:1078C000B7001A97636567006373B7001A97B3052B
:1078D000B74033F7D502C207C183B3D5D502B3058C
:1078E000B50213150701C98F63F8B7009A9763E5CE
:1078F000670063F3B7009A978D8FA1B73706000131
:107900004147E361C3F86147B5BF3313C30133D6C1
:107910000501B317C501335805011355030133772A
:10792000A602B395C5013368B80093150301C18160
:10793000935608013356A6024207558F3386C50277
:107940006378C7001A97636567006373C7001A9767
:10795000B306C74033F7A602420813580801B3D64E
:10796000A6024207B386D502B365070163F8D500C6
:107970009A9563E5650063F3D5009A95958D0DB7EB
:10798000E3E4D5EC416763F5E604130FF00F3337FA
:10799000DF000E0733DEE600173302001303C34C8B
:1079A0007293034F0300930E00023A9FB38EEE4191
:1079B00063970E0263E4B6006369C500B307C54070
:1079C000958D3335F5003388A5403E85C285ADBD24
:1079D000370300014147E3EF66FA614765BF33575C
:1079E000E601B396D601D98E13D8060133D7E50147
:1079F000337E0703B395D501B357E501CD8F93953A
:107A00000601C18113D307013316D6013315D50101
:107A100033570703420E33636E00B38FE5023A8E8D
:107A2000637CF3013693130EF7FF6367D30063752E
:107A3000F301130EE7FF36933303F341B37F0303E0
:107A4000C207C18333530303C20FB3EFFF00B385F3
:107A500065029A8763FCBF00B69F9307F3FF63E755
:107A6000DF0063F5BF009307E3FFB69FB385BF4018
:107A7000420EC16F336EFE009387FFFF3373FE002B
:107A800013580601135E0E01F18F3307F302B3079B
:107A9000FE0233030303330E0E033E931358070114
:107AA0001A986373F8007E9E935708013E9EC16743
:107AB000FD173378F80042087D8F429763E6C501D1
:107AC000639CC501637AE5003306C7403337C700BE
:107AD0003697330EEE4032873307E5403335E50005
:107AE000B385C541898DB397E5013357D70133E598
:107AF000E700B3D5D50189BBAE87328836872A83A4
:107B000063960620973802009388083663FEC50AFC
:107B100041676374E60A1307F00F3337C7000E0797
:107B2000B356E600B69883C608003697930600025F
:107B3000998E99CAB397D7003357E5003318D6000A
:107B4000B365F7003313D5001355080133F7A502C9
:107B500013160801418293560301B3D5A5024207CB
:107B6000D98EB307B6022E8763FCF600C296138740
:107B7000F5FF63E7060163F5F6001387E5FFC2969C
:107B80009D8EB3F7A602420313530301B3D6A60298
:107B9000C20733E36700B305D6023685637BB300C3
:107BA00042931385F6FF636603016374B300138584
:107BB000E6FF4207498F81454DA8B70600014147BE
:107BC000E360D6F66147A9BF01E6854633D8C60211
:107BD000C166637ED8089306F00F63F30601214760
:107BE000B356E800B69883C60800BA961307000299
:107BF000158F49E7B3870741854513560801931848
:107C0000080193D808019356030133F7C702B3D78D
:107C1000C7024207D98E3385F8023E8763FCA6006F
:107C2000C2961387F7FF63E7060163F5A600138783
:107C3000E7FFC296898EB3F7C602420313530301CE
:107C4000B3D6C602C20733E36700B388D8023685CD
:107C5000637B130142931385F6FF6366030163742C
:107C600013011385E6FF4207498F3A858280B706E4
:107C700000014147E366D8F661479DB73318E80035
:107C8000B3D5D7003313E500B356D500135508011B
:107C9000B397E70033F7A502B3E8F600931708019E
:107CA000C18313D60801B3D5A5024207518FB3860D
:107CB000B7022E86637CD70042971386F5FF636771
:107CC00007016375D7001386E5FF4297B306D740D7
:107CD00033F7A602C20893D80801B3D6A60242071A
:107CE000B385D702B3671701368763FCB700C29725
:107CF0001387F6FF63E7070163F5B7001387E6FF15
:107D0000C2978D8F93150601D98DC5BD63E2D51439
:107D1000416763FEE6021308F00F3337D8000E0701
:107D200033D8E6009735020093850514C29503C841
:107D30000500930500023A98B385054185E10547A2
:107D4000E3E5F6F23335C5001347150039BFB70533
:107D500000014147E3E6B6FC6147D9B73357060156
:107D6000B396B600D98E93DE060133D70701B378F8
:107D7000D703B397B700335805013363F8009397DF
:107D80000601C183135803013316B6003357D703D6
:107D9000C20833E80801338FE7023A8E637CE801BA
:107DA0003698130EF7FF6367D8006375E801130E6A
:107DB000E7FF36983308E841B378D8033358D8033F
:107DC000C208B38E070393170301C183B3E7F8001A
:107DD000428763FCD701B6971307F8FF63E7D70024
:107DE00063F5D7011307E8FFB697420EB387D74173
:107DF000C16E3367EE001388FEFF3373070193589B
:107E00000701337806014182330E030333880803E8
:107E100093560E013303C30242939A96B388C80265
:107E200063F30601F69813D60601B29863E01703D0
:107E3000E39317D9C167FD17FD8EC206337EFE009E
:107E40003315B500F2968145E371D5E27D17A5B3F0
:107E50008145014719BDB2883687AA872E88639865
:107E6000061C973602009386260063F8C50A416314
:107E7000637E66081303F00F6373C3002147335317
:107E8000E6009A9603CE0600130300023A9E3303DF
:107E9000C341630C0300B3956500335EC501B3189D
:107EA00066003368BE00B317650013D60801337748
:107EB000C80213950801418193D607013358C802BF
:107EC0004207D98E3308050363F80601C69663E5B9
:107ED000160163F30601C696B386064133F7C60260
:107EE000C207C183B3D6C602B306D5021315070174
:107EF000C98F63F8D700C69763E5170163F3D7000E
:107F0000C697958F33D5670081458280370300017E
:107F10004147E36666F661479DB701E60546B358FB
:107F20001603416663F3C8081306F00F6373160166
:107F3000214733D6E800B29603CE060013030002B1
:107F40003A9E3303C34163190306B385154113D722
:107F5000080113950801418113D60701B3F6E50224
:107F6000B3D5E502C206D18EB305B50263F8B600FB
:107F7000C69663E5160163F3B600C696B385B640B0
:107F8000B3F6E502C207C183B3D5E502B305B50276
:107F900013950601C98F63F8B700C69763E517010B
:107FA00063F3B700C6978D8FB1BF37060001414715
:107FB000E3E1C8F86147B5BFB398680033D7C5019E
:107FC000B3176500335EC50113D50801B376A70268
:107FD000B3956500336EBE0093950801C1811356B9
:107FE0000E013357A702C206D18E3387E50263F82C
:107FF000E600C69663E5160163F3E600C69633868F
:10800000E640B376A602420E135E0E013356A60278
:10801000C2063386C502B3E5C60163F8C500C6953E
:1080200063E5150163F3C500C695918D0DB7E3EEC9
:10803000D5EC416763F5E604930EF00F33B7DE002D
:108040000E0733D3E600973802009388E8E19A9848
:1080500083CE0800130E0002BA9E330EDE41631772
:108060000E0263E4B6006369C500B307C540958D91
:108070003335F5003388A5403E85C28579B5B7080C
:1080800000014147E3EF16FB614765BF3357D60157
:10809000B396C601D98E13D8060133D7D5013373F1
:1080A0000703B395C501B357D501CD8F939506014D
:1080B000C18193D807013316C6013315C501335763
:1080C00007034203B3681301338FE5023A8363FC6D
:1080D000E801B6981303F7FF63E7D80063F5E801FA
:1080E0001303E7FFB698B388E84133FF0803B3D81A
:1080F0000803420F3388150393950701C181B365C7
:10810000BF00C68763FC0501B6959387F8FF63E758
:10811000D50063F505019387E8FFB6954203416FEB
:108120003363F3009307FFFFB378F300B385054192
:108130001353030113580601F18F3387F802B30775
:10814000F302B388080333030303BE9813580701EF
:1081500046986373F8007A93935708013E93C1677A
:10816000FD173378F80042087D8F429763E665007B
:10817000639C6500637AE5003306C7403337C70068
:1081800036973303E34032873307E5403335E50064
:10819000B3856540898DB397D5013357C70133E562
:1081A000E700B3D5C50195B3370810007D18B37843
:1081B000B8008E08011113D745019357D5013378C4
:1081C000D8000E0826CA4AC8B3E7170106CE93D8CE
:1081D000460122CC4EC69374F77F93F8F87F13576D
:1081E000D60113D9F501FD82336707010E050E068E
:1081F000338814416316D9226351000F6398080233
:10820000B366C700638706569305F8FF89E92A9687
:108210003335A600BA97AA9732858544B1A893064C
:10822000F07F631DD8009304F07F79AA9306F07F56
:10823000638CD418B7068000558FC28593068003DF
:1082400063C9B608FD4663C0B606130800023308CA
:10825000B840B3160701B358B60033160601B3E6AB
:1082600016013336C000558E3357B7002A963E9715
:10827000B337A600BA973285139787006356071461
:1082800085041307F07F6385E448B70680FFFD1679
:10829000FD8E935515009397F60105894D8D5D8DE3
:1082A00093D7160015A2938605FE93080002B356D5
:1082B000D70001486388150113080004B305B840CE
:1082C0003318B7003366C8003336C000558E0147F7
:1082D00071BF598E3336C000DDBF630B080AB3850A
:1082E00098408DE4B3E6A700638B06409386F5FFC4
:1082F00099E63295BA973336C500B29739BF13085D
:10830000F07F639D0501BA87328531BF9306F07F08
:10831000E38BD8FEB7068000D58FAE869305800329
:1083200063C4D506FD4563CBD502130800023308AC
:10833000D8403353D500B395070133150501B3E594
:1083400065003335A0004D8DB3D6D7003295B38785
:10835000E6003336C500B297C68439BF938506FE62
:1083600013030002B3D5B700014863886600130801
:108370000004B306D8403398D7003365A8003335DE
:10838000A0004D8D8146D9B75D8D3335A000DDBF8E
:108390009386140093F5E67FBDE1B3E6A700A9E458
:1083A00063830636B366C70085C22A96BA9733350B
:1083B000A600AA97139787003285635707003707EF
:1083C00080FF7D17F98F85441377750063040734A8
:1083D0001377F5009146630FD7329306450033B506
:1083E000A600AA9736853DA699DE598EE30D06E2D2
:1083F0000149B707400001459304F07F21AE930582
:10840000F07F6385B6302A963E97B337A6003E9735
:108410001315F7010582518D93571700B6846DB778
:108420006356000D63910808B366C7006383063482
:108430009305F8FF91E93306C5403335C500998FA0
:10844000898F32858544B1A09306F07FE30DD8DC97
:108450009306800363C8B608FD4663CFB6041308CD
:1084600000023308B840B3160701B358B6003316FC
:108470000601B3E616013336C000558E3357B700F8
:108480003306C5403387E740B337C500B307F7402D
:10849000328513978700E35907F2370480007D1473
:1084A0007D8CAA8975A29306F07FE38FD4F0B7067E
:1084B0008000558FC28569BF938605FE9308000230
:1084C000B356D70001486388150113080004B305AB
:1084D000B8403318B7003366C8003336C000558E35
:1084E000014779BF598E3336C000DDBF6304080CE5
:1084F0003388984095E8B3E5A700638E0526930579
:10850000F8FF91E93305A640B307F7403336A600DC
:10851000918F368905BF1303F07F631F6800BA8708
:1085200032859304F07F7DA09305F07FE389B8FE48
:10853000B7058000CD8FC285130880036348B80655
:108540007D48634EB802130300023303B340335E29
:10855000B50033986700331565003368C8013335BB
:10856000A0003365A800B3D5B7003305A640B30714
:10857000B7403336A600918FC684368919BF138859
:1085800005FE130E000233D8070101436388C501BD
:1085900013030004B305B3403393B7003365A3005E
:1085A0003335A0003365A8008145C1B75D8D3335F3
:1085B000A000DDBF9385140093F5E57FB5E533E8B2
:1085C000A700B365C700B1E4631808006389051A02
:1085D000BA8732853689CDBBE38805DE3308C540CE
:1085E000B385E740B3380501B38515411394850081
:1085F000635A04003305A640B307F7403336A6009C
:10860000918FC9BF3365B800630F0516AE874285E9
:1086100065BB63180800638A0516BA8732853689F8
:1086200019B1E38205C0E9B3B309C540B3353501DB
:108630003384E7400D8C9315840063D70506B30996
:10864000A640B307F740333636013384C740368936
:1086500035C02285EF10A03D130785FFFD4763C19C
:10866000E70693070002998F3314E400B3D7F900AB
:108670005D8C3395E900634E9706058F93071700CD
:10868000FD4663C5F604130700021D8F3356F5003F
:10869000B316E4003315E500D18E3335A000558DB7
:1086A000B357F40081440DB333E5890055F1814798
:1086B0008144C1A84E85EF1080371305050269BFBC
:1086C000130485FD33948900014575B7051713061A
:1086D00000023357E40081466387C7009306000415
:1086E0009D8EB316D400558D3335A000598D81472A
:1086F00055BFB70780FFFD17998CE18FF1B1BA879D
:108700003285AE84D1B1BA8732857DB99304F07FCA
:108710008147014513978700635B070085041307B2
:10872000F07F6389E406370780FF7D17F98F139781
:10873000D7010D81598D1307F07F8D836399E40074
:108740005D8D814709C5B70708000145014913F749
:10875000F47FB2075207F2406244B1839315F901E6
:10876000D98F33E7B700D2444249B249BA8505618F
:108770008280C28491B9BA873285C284A1BD814703
:108780000145014941BF8147EDBF01450149B70797
:1087900040009DB18147014559BF797126D24ECE27
:1087A00052CC5AC85EC613D8450106D622D44AD048
:1087B00056CA9394C5001378F87F2A8BB28B368AF9
:1087C000B18093D9F501630408089307F07F630A29
:1087D000F80C935AD5018E04B3E49A00B70A8000CE
:1087E000B3EA540113143500130918C0014B135593
:1087F0004A019314CA001378F57FB180135AFA0125
:108800006304080C9307F07F6309F8101395340094
:1088100093D7DB015D8DB7048000C98C139F3B00AB
:10882000130518C0814713172B005D8F7D17B946BC
:1088300033C649013308A94063E3E61097260200D6
:108840009386065B0A073697184336970287B3EA82
:10885000A40063820A069DC82685EF10401D930779
:1088600055FF71476349F702F54A130485FFB38A40
:10887000FA40B3948400B35A5B01B3EA9A0033140C
:108880008B001308D0C03309A8408DB7EF10201A11
:1088900013050502E9B7930485FDB31A9B00014453
:1088A000CDB7B3EAA400638C0A002A84A68A130910
:1088B000F07F0D4B2DBF01440149054B0DBF014415
:1088C0001309F07F094B25B733EF740163000F06DE
:1088D0008DC82685EF10A015930755FF7147634893
:1088E000F7027547130F85FF1D8FB394E40133D74B
:1088F000EB00D98C339FEB011306D0C03305A640A3
:1089000015B75E85EF10A01213050502F1B79304A9
:1089100085FDB3949B00014FC5B733EF7401630B22
:108920000F005E8F1305F07F8D47F5BD8144014533
:108930008547D5BD81441305F07F8947EDB563E6D2
:10894000540163939A2A6361E42B9396FA011357B7
:1089500014009317F40193DA1A0033E4E600139538
:10896000840093548F01458D135E0501B3D8CA036B
:1089700013130501135303011357040193158F00BB
:10898000B3F4CA03C68FB3061303939A0401336783
:108990005701637CD7002A97938FF8FF6367A7007E
:1089A0006375D700938FE8FF2A97158FB35EC703CF
:1089B000420441803377C703F686B308D3034207E6
:1089C000418F637C17012A979386FEFF6367A70098
:1089D000637517019386EEFF2A97C20FB3EFDF008E
:1089E000C166330417419388F6FF13DF0F0133F795
:1089F0001F0193DE0501B3F81501B3031703B30498
:108A00001F033387EE02B302DF03330F970013D740
:108A100003017A9763739700B692135F0701169F5D
:108A2000C162FD12B3765700C206B3F353009E969F
:108A30006367E401FE84631EE40363FCD702AE9720
:108A400033B7B7002A973A949384FFFF6366850093
:108A50006311850263EFB7006366E401631B8F0057
:108A600063F9D700AE9733B7B7002A979384EFFF27
:108A70003A94B386D7403304E441B3B7D7001D8C92
:108A80007D5F6305850E335FC40313D7060133741E
:108A9000C403B307E3034204598C7A87637CF40070
:108AA0002A941307FFFF6367A4006375F40013079C
:108AB000EFFF2A941D8C335FC403C206C182337456
:108AC000C403FA873303E3034204558C637C6400D8
:108AD0002A949307FFFF6367A400637564009307FC
:108AE000EFFF2A9442075D8F93170701C183330478
:108AF000644013530701338E1703B3081303338302
:108B00006E02B38EFE0293570E01C69EF69763F473
:108B10001701C166369393D807019A9841637D1374
:108B2000B3F66700C206337E6E00F29663661401E8
:108B3000631E14193A8F9DCA2A94130FF7FF6361BD
:108B4000A402636614016312141963FDD5009397A0
:108B50001500B3B5B7002E95130FE7FF2A94BE8515
:108B6000631414016384B600136F1F001307F83FEA
:108B70006357E00A93777F0081CF9377FF00914698
:108B80006388D70093064F0033BFE601FA94368F0F
:108B90009397740063D80700B70700FFFD17FD8C9B
:108BA000130708409307E07F63C8E710135F3F0097
:108BB0009397D401B3E7E70113D534003205137757
:108BC000F77F5207B25022543181598D7E063367A8
:108BD000C50092540259F249624AD24A424BB24B02
:108BE0003E85BA85456182807D1881478DBB4E8662
:108BF000D684228FDA8709476380E70C0D476386A6
:108C0000E70A0547E394E7F60145814785A85286C0
:108C1000DDB7B7040800014F01468D47E9BF0545A0
:108C2000198D93078003E3C1A7FEFD4763CAA7041C
:108C30001308E841B39704013357AF0033180F010D
:108C4000D98F33380001B3E7070133D5A40013F7F8
:108C5000770001CF13F7F70091466308D700138719
:108C60004700B337F7003E95BA8713178500634A6C
:108C700007041317D5018D83D98F0D8101473DBF9F
:108C80008557998F93060002B3D7F4000147630616
:108C9000D5001308E84333970401336FE701333FEE
:108CA000E001B3E7E70101455DB7370508008147FB
:108CB0001307F07F014619B7014581471307F07F7D
:108CC000F5BD014581470547D5BD7A873A8F69BD16
:108CD00013D74501B7071000FD1713D846012A83A3
:108CE000AA8E1377F77F1305F07FB3F8B700328FA2
:108CF000F58FFD811378F87FFD82631AA70033EEAC
:108D00006800054563140E006305E8008280631562
:108D1000A8005D8E05457DFA0545E31907FFE39739
:108D2000F8FEE395EEFF6388D5006DF333E5680048
:108D30003335A00082800145828013D84501B707F2
:108D40001000FD1713D746011378F87F930EF07FBC
:108D5000B3F8B7002A83F58FFD81328E1377F77F42
:108D6000FD826318D801B3EEA80063850E06F9559D
:108D70001DA86316D701B3EEC700E39A0EFE631D6C
:108D8000080433E5A8001335150019E35D8E15CEF0
:108D900001E96394D500635A070195C5FD5521A0EB
:108DA000FD5591C2B6852E8582806354E800E5FDAD
:108DB000F5B7E3E417FF639CF800E3606EFEE36839
:108DC000C3FF8145CDB78545F9BF65FDF9B7E3E040
:108DD000F8FEC5BFE30107FB4DFF014545BF13D8B2
:108DE0004501B7071000FD1713D746011378F87F28
:108DF000930EF07FB3F8B7002A83F58FFD81328E92
:108E00001377F77FFD826318D801B3EEA80063855E
:108E10000E0689451DA86316D701B3EEC700E39A75
:108E20000EFE631D080433E5A8001335150019E391
:108E30005D8E15CE01E96394D500635A070195C58F
:108E4000FD5521A0FD5591C2B6852E8582806354C3
:108E5000E800E5FDF5B7E3E417FF639CF800E36085
:108E60006EFEE368C3FF8145CDB78545F9BF65FD5B
:108E7000F9B7E3E0F8FEC5BFE30107FB4DFF01458D
:108E800045BF797122D426D24ECE52CC56CA5AC88A
:108E900093D9450106D64AD05EC69394C50093F98E
:108EA000F97F2A84328BB68AB18013DAF5016381A7
:108EB00009089307F07F6385F90C9357D5018E0459
:108EC000DD8CB7078000DD8C13193500938919C03C
:108ED000814B13D54A011394CA001375F57F318075
:108EE00093DAFA0161C19307F07F6305F510935798
:108EF000DB010E045D8CB70780005D8C130515C087
:108F000093173B00014793962B00D98E4E95FD1683
:108F1000B94533465A011308150063EED50E97255F
:108F200002009385A5F08A06AE969442AE9682869C
:108F300033E9A400630F09048DC82685EF00302FA4
:108F4000130755FFF14763C7E702F547130985FF8C
:108F5000998FB3942401B357F400DD8C33192401A5
:108F60009309D0C0B389A940A5B7EF00502C1305D1
:108F70000502F9B7930485FDB31494000149CDB7F8
:108F800033E9A400630B09002A899309F07F8D4B14
:108F900089B781448149854B2DBF81449309F07F76
:108FA000894B05BFB3676401B1CF0DC82285EF00BF
:108FB0001028930655FFF14763C8D70275479307FA
:108FC00085FF158F3314F4003357EB00598CB3171A
:108FD000FB001307D0C03305A7402DB75A85EF001B
:108FE000102513050502F1B7130485FD33148B001A
:108FF0008147C5B7B367640191CBDA871305F07F6A
:109000000D4711B7014401450547F5BD014413055E
:10901000F07F0947CDBD416F930EFFFF1357090144
:1090200093D807013379D901B3F7D701B385280362
:10903000B3862703B30FF7023383F50193D50601F7
:109040009A95330E170363F3F5017A9EB3F6D601B2
:1090500093D30501B3F5D501135F0401B372D401B5
:10906000C205B695B30E5702B386220333092F0308
:109070003303D90113D906011A993307E70363743F
:10908000D90141631A97935E0901C169BA9E13879A
:10909000F9FFF98E3379E90013D404014209F98C00
:1090A000369933879702CA933303F402B386980242
:1090B000B3878802B388660093560701C69663F3A8
:1090C0006600CE9793D80601C169B38FF8009387E5
:1090D000F9FFFD8E7D8FB3889202C206BA96B30760
:1090E0005402B3049F0233038F02BE9413D40801C9
:1090F000A29463F3F4004E93C167FD1733F7F400B5
:10910000B3F8F80042071E9E469733392E01769732
:1091100033042701369EB336DE00B308F401338FE3
:10912000D8003337D70133342401598CC180B3B808
:10913000F801B336DF002694B3E6D800369493578F
:109140007F011A9426045D8C93179E00CD8F131710
:109150009F00B337F000135E7E01B3E7C701D98FDC
:10916000131774006358070A13D71700858BD98F1C
:109170001317F401D98F05809306F83F635ED0087A
:1091800013F7770001CF13F7F70091456308B70095
:1091900013874700B337F7003E94BA87131774005C
:1091A00063580700370700FF7D17798C9306084046
:1091B0001307E07F634CD70E13D737009317D40102
:1091C000D98F0D80320413F7F67F52073180598C06
:1091D0007E063367C400B250225492540259F249B9
:1091E000624AD24A424BB24B3E85BA854561828083
:1091F00052862684CA875E8789466309D70A8D46C8
:10920000630FD7088546E319D7F6014481479DA02F
:109210005686DDB72A888DB78545958D130780035F
:10922000E345B7FE7D476349B7041308E8413317A8
:109230000401B3D6B700B3970701558FB337F000D9
:10924000D98F3354B40013F7770001CF13F7F70029
:1092500091466308D70013874700B337F7003E9461
:10926000BA8713178400634807041317D4018D834A
:10927000D98F0D808146B9B70557158F13050002A8
:109280003357E40081466386A5001308E843B3160C
:109290000401D58FB337F000D98F01446DB737047F
:1092A000080081479306F07F014629BF01448147AA
:1092B0009306F07F01BF01448147854621B73708F7
:1092C00010007D18B378B8008E08011113D745013E
:1092D0009357D5013378D80026CA4AC8B3E7170197
:1092E00006CE93D8460122CC4EC69374F77F13D98D
:1092F000F5011357D6010E0893F8F87F9305F07F18
:109300000E05FD82336707010E066395B800B3654D
:10931000C70099E193C6160033881441639326234E
:10932000635C000F63950804B366C7008DC21388A1
:10933000F4FF631A08002A963335A600BA97AA9755
:109340003285854495A89306F07F6399D4021377FC
:1093500075006300074E1377F5009146630BD74CF9
:109360009306450033B5A600AA973685D9A1930682
:10937000F07FE38ED4FCB7068000558F9306800300
:1093800063C80609FD4663C0060793050002B3855E
:109390000541B316B700B35806013316B600B3E65D
:1093A00016013336C000558E335707012A963E9773
:1093B000B337A600BA97328513978700E35907F8A9
:1093C00085041307F07F6384E446B70680FFFD162B
:1093D000FD8E935515009397F60105894D8D5D8D92
:1093E00093D71600ADB7930608FE93080002B35654
:1093F000D7008145630818019305000433880541AF
:10940000B31507014D8E3336C000558E014779BF25
:10941000598E3336C000DDBF630B080AB385984010
:109420008DE4B3E6A700638B063E9386F5FF99E6CD
:109430003295BA973336C500B29721B71308F07F3B
:10944000639D0501BA873285E5AC9306F07FE38B17
:10945000D8FEB7068000D58FAE869305800363C41F
:10946000D506FD4563CBD502130800023308D8406A
:109470003353D500B395070133150501B3E56500F6
:109480003335A0004D8DB3D6D7003295B387E600B3
:109490003336C500B297C68405B7938506FE13031D
:1094A0000002B3D5B70001486388660013080004C2
:1094B000B306D8403398D7003365A8003335A000F1
:1094C0004D8D8146D9B75D8D3335A000DDBF9386C4
:1094D000140093F5E67FA9E5B3E6A7009DE4638356
:1094E0000634B366C700E38406E62A96BA97333596
:1094F000A600AA97139787003285E35A07E4370737
:1095000080FF7D17F98F854499B58DDE598E6309EB
:1095100006220149B707400001459304F07F11AED0
:109520009305F07F6383B6302A963E97B337A60043
:109530003E971315F7010582518D93571700B68496
:1095400039B56355000D63920808B366C700E38020
:1095500006E01388F4FF631B08003306C54033356B
:10956000C500998F898F32858544B1A09306F07F1D
:10957000E38FD4DC9306800363C60609FD4663CE01
:10958000060593050002B3850541B316B700B3582D
:1095900006013316B600B3E616013336C000558E09
:1095A000335707013306C5403387E740B337C5005B
:1095B000B307F740328513978700E35A07D837047B
:1095C00080007D147D8CAA896DA29306F07FE380D4
:1095D000D4D8B7068000558F71BF930608FE930854
:1095E0000002B356D70081456308180193050004B3
:1095F00033880541B31507014D8E3336C000558EB3
:1096000001474DB7598E3336C000DDBF6304080CE7
:109610003388984095E8B3E5A700638B052693054A
:10962000F8FF91E93305A640B307F7403336A600AB
:10963000918F368915BF1303F07F631F6800BA87C7
:1096400032859304F07F7DA09305F07FE389B8FE17
:10965000B7058000CD8FC285130880036348B80624
:109660007D48634EB802130300023303B340335EF8
:10967000B50033986700331565003368C80133358A
:10968000A0003365A800B3D5B7003305A640B307E3
:10969000B7403336A600918FC684368929BF138818
:1096A00005FE130E000233D8070101436388C5018C
:1096B00013030004B305B3403393B7003365A3002D
:1096C0003335A0003365A8008145C1B75D8D3335C2
:1096D000A000DDBF9385140093F5E57FBDE533E879
:1096E000A700B365C700B1E4631808006386051AD4
:1096F000BA8732853689A1B9E38B05C43308C540E2
:10970000B385E740B3380501B3851541139485004F
:10971000635A04003305A640B307F7403336A6006A
:10972000918FC9BF3365B800630C0516AE874285BB
:1097300039B9631A080063870516BA8732853689F6
:109740009304F07F29B1EDDDE9B3B309C540B3352A
:1097500035013384E7400D8C9315840063D60506EC
:10976000B309A640B307F740333636013384C74008
:1097700036892DC02285652C130785FFFD4763C000
:10978000E70693070002998F3314E400B3D7F9007A
:109790005D8C3395E900634D9706058F930717009D
:1097A000FD4663C4F604130700021D8F3356F5000F
:1097B000B316E4003315E500D18E3335A000558D86
:1097C000B357F400814461B633E589005DF1814708
:1097D0008144E9A04E85A12C1305050271BF130435
:1097E00085FD3394890001457DB7051713060002F6
:1097F0003357E40081466387C700930600049D8EBB
:10980000B316D400558D3335A000598D81475DBF07
:10981000B70780FFFD17998CE18F15BEBA87328597
:10982000AE8435B6BA8732851DB69304F07F814782
:10983000014513978700635B070085041307F07FDA
:109840006387E406370780FF7D17F98F1397D701E9
:109850000D81598D1307F07F8D836399E4005D8D31
:10986000814709C5B70708000145014913F7F47F8F
:10987000B2075207F2406244B1839315F901D98FC0
:1098800033E7B700D2444249B249BA8505618280C4
:10989000BA873285C284B9BD81470145014951BFAC
:1098A0008147EDBF01450149B7074000BDB1814780
:1098B000014569BF13D74501B70610009387F6FF2E
:1098C0001377F77F1306E03FED8FFD816354E604C5
:1098D0001306D0416358E600370500801345F5FFB5
:1098E0002E958280D58F93063043998E7D46634DA9
:1098F000D6001307D7BEB397E7003355D5005D8D6B
:1099000099C93305A040828013053041198D33D5A4
:10991000A700FDB70145828013D74501B7061000A7
:109920002A869387F6FF1377F77F1305E03FED8FC5
:10993000FD81635FE502014591E59305E0417D55B9
:1099400063D3E5008280D58F93063043998EFD4521
:1099500063CAD5001307D7BEB397E7003355D600C7
:109960005D8D828013053041198D33D5A70082802B
:1099700001458280411106C622C426C231CD9357CB
:10998000F54133C4A7001D8C9354F5012285452071
:109990001307E041A947098F63CAA702AD47898F22
:1099A0005505B357F4003314A4002685B207137786
:1099B000F77F52077E05B183D98F33E7A700B24006
:1099C000228522449244BA85410182805515B317FD
:1099D000A40026850144D9BF01478147E5BF411155
:1099E00022C406C62A8429C199201307E041A94749
:1099F000098F63C6A702AD47898F5505B357F40099
:109A00003314A4002285B2402244B2071377F77FB3
:109A10005207B183B3E6E700B68541018280551550
:109A2000B317A4000144F9BF81470147E1BFC167F3
:109A30006376F5029307F00FB3B7A7008E071307FD
:109A400000021D8FB357F500171502001305C5411D
:109A5000AA9703C507003305A74082803707000196
:109A6000C147E36EE5FCE147D9BF294681456F2038
:109A70004048A94601466F20E0448397C500011184
:109A800022CC139707014EC6418306CE26CA4AC888
:109A9000937687002E84AA89D5EA05671307078085
:109AA000D98FD8412396F500635DE00E185459C74D
:109AB000C20783A40900C18323A00900939637013C
:109AC0004C4C63C4060E854601464E850297FD57F1
:109AD0006303F5108357C40018544C4C918B99C7FD
:109AE00054401C58158D99C35C5C1D8D2A86814697
:109AF0004E850297FD57631CF50A03A709008317DB
:109B0000C4007DCBF5466305D700D9466310D7085E
:109B100014487D771307F77FF98F2316F40023226B
:109B2000040014C00C5823A0990089C993070404A9
:109B30006384F5004E855929232804020145F2402B
:109B40006244D2444249B2490561828003A90501B9
:109B5000E30609FE844123A025010D8BB384244133
:109B6000814711E3DC491CC463469000C1BF2A99B8
:109B7000E35690FC5C504C4CA6864A864E858297F4
:109B8000898CE346A0FE8357C4007D5593E7070404
:109B90002316F400F2406244D2444249B2490561BE
:109BA0008280D85DE344E0F051BF284805BF835769
:109BB000C4007D771307F77FF98F1448C207C18768
:109BC0002316F4002322040014C013973701E35B2B
:109BD00007F428C881BF83A70900E38D07EE754706
:109BE0006382E7025947638FE7008357C40093E716
:109BF00007042316F400A1B77D771307F77F1448F5
:109C0000F98F7DBF23A09900014515BF011122CC1A
:109C100006CE2A8419C11C5D89CB8397C50081EFCC
:109C2000F24062440145056182802EC6492CB2454E
:109C30008397C500F5D722856244F240056135BDA2
:109C4000AA8519C59767FE079387C74788437DBFD5
:109C50009717020093874731884397050000938543
:109C600025FB39AD01458280974500009385653E0F
:109C700001AD011106CE22CC26CA4AC84EC652C436
:109C800056C25AC017070000130747FE404158DD6F
:109C90009307C52E0D472322E52E2324F52E2320DE
:109CA000052E91472A895CC421468145232204065A
:109CB000232004002322040023240400232804007A
:109CC000232A0400232C04001305C405EF0050745C
:109CD000171B0000130B6B1483248900971A0000D4
:109CE000938A6A17171A0000130A2A1C9719000092
:109CF0009389C91F2320640323225403232444038C
:109D00002326340340CCC167A507DCC42146814526
:109D100023A2040623A0040023A2040023A4040019
:109D200023A8040023AA040023AC04001385C4055F
:109D3000EF00106E0324C900B707020023A06403DC
:109D400023A2540323A4440323A63403C4CCC90789
:109D50005CC42322040623200400232204002324BD
:109D6000040023280400232A0400232C04001305E4
:109D7000C40521468145EF00B069232064032322F6
:109D80005403232444032326340340CCF24062448A
:109D90008547232CF902D2444249B249224A924AC9
:109DA000024B0561828001458280411126C2130663
:109DB00080069384F5FFB384C4024AC02E8922C46E
:109DC00006C693854407E5232A8401CD3105232067
:109DD00004002322240108C4138684068145EF0071
:109DE00030632285B240224492440249410182807C
:109DF000011197170200938727174AC803A9070084
:109E00004EC606CE8327890322CC26CAAA89C1C39F
:109E10001309092EFD548327490003248900FD17E7
:109E200063D8070085A0FD1713048406638C97048C
:109E30000317C4006DFBC177850723220406232086
:109E4000040023220400232404005CC4232804000B
:109E5000232A0400232C0400214681451305C40550
:109E6000EF00105B23280402232A040223220404A7
:109E7000232404042285F2406244D2444249B24978
:109E8000056182800324090011C4228969B74A85CB
:109E9000CD33BDBF91454E85093F2320A9002A84BB
:109EA0006DF5B14723A0F900F1B79717020093872A
:109EB000A70B8843974500009385A519D1A61C5D83
:109EC00091C382807DB38280828082808280976706
:109ED000FE079387271F8843970500009385C5D801
:109EE00035A69767FE079387E71D8843970500000F
:109EF0009385A5EB21AE011122CC26CA4AC84EC6D5
:109F00002E8406CE2A89EF00505B9769FE0793895D
:109F1000297583A6890005679307F7FEC442338439
:109F20008740F198269431807D143204634BE4001D
:109F300081454A85EF00105F83A78900A697630DCE
:109F4000F5004A85EF0090576244F240D2444249FE
:109F5000B249014505618280B30580404A85EF0022
:109F6000705CFD57630BF50217A7FE071307C79731
:109F70001C4383A68900818C93E4140033848740BA
:109F80004A85C4C200C3EF0070536244F240D24419
:109F90004249B24905450561828081454A85EF0005
:109FA000705803A78900BD46B307E540E3DBF6F828
:109FB0009776FE07938646AB944293E717005CC3FF
:109FC000158D97A7FE0723A1A792A5BFE5C541114F
:109FD00022C426C22E84AA8406C6EF00104E832512
:109FE000C4FF130784FF1765FE071305656793F722
:109FF000E5FF3306F700544203288500F19A630C0D
:10A00000C81254C285893308D600B5ED032384FFF6
:10A01000832548009768FE079388086533076740E3
:10A02000032887009A9785896304180F0323C700C4
:10A030002326680023240301638C051493E617008C
:10A0400054C31CC29306F01F63E0F6088D83938609
:10A0500017008E0603284500AA968C4213D6274087
:10A060008547B397C700B3E70701138686FF50C73C
:10A070000CC75CC198C2D8C52244B2402685924420
:10A0800041016F00B0438325480085898DE5B6976F
:10A090009768FE079388485D144613E81700B305D8
:10A0A000F700638F160F5046D0C614C6232207014F
:10A0B0009CC149BF828093E61700232ED4FE9306ED
:10A0C000F01F1CC2E3F4F6F893D6970011466362C2
:10A0D000D60A93D6670093859603138686038E056A
:10A0E000AA959441E1156387D50CD042719A63F526
:10A0F000C7009446E39BD5FECC464CC714C7224408
:10A1000098C5B240D8C62685924441016F00103BE5
:10A11000EDE94C461046B69713E517004CC62244AD
:10A1200090C5B306F70048C3B2409CC2268592444E
:10A1300041016F00B0388589B69789E9832584FF8E
:10A140000D8F54471047AE9754C690C693E617003C
:10A1500054C39776FE0793866691944218C5E3ED43
:10A16000D7F09797FE079387E7778C43268561336F
:10A1700021B751466370D602130640056366D604C4
:10A1800093D6C7009385F6061386E6068E0589BF2B
:10A19000B69719B79385C6051386B6058E0589B798
:10A1A00058C918C9232617012324170123220701A0
:10A1B0009CC1D9B503284500098685473396C70059
:10A1C0003366060150C115BF13064015636AD600F9
:10A1D00093D6F70093858607138676078E0509B711
:10A1E00013064055636AD60093D627019385D60798
:10A1F0001386C6078E05EDB59305803F1306E0076D
:10A20000C5B593E6170054C31CC2BDB5011156C2B3
:10A2100006CE22CC26CA4AC84EC652C45AC0930A99
:10A22000052E638D0A042E8B014A85497D5983A42E
:10A230004A0003A48A00FD1463C304028357C400C8
:10A24000FD1463FAF9008317E40022856385270172
:10A25000029B336AAA0013048406E39124FF83AAB5
:10A260000A00E3960AFCF24062445285D244424915
:10A27000B249224A924A024B05618280014AE5B7FF
:10A28000797156CA06D622D426D24AD04ECE52CCA6
:10A290005AC85EC6930A052E63800A06AE8B2A8BC7
:10A2A000014A85497D5983A44A0003A48A00FD140C
:10A2B00063C404028357C400FD1463FBF9008317D1
:10A2C000E400A2855A8563852701829B336AAA0030
:10A2D00013048406E39024FF83AA0A00E3950AFC92
:10A2E000B2502254528592540259F249624AD24ADB
:10A2F000424BB24B45618280014ADDB70DC6411128
:10A30000976502009385C556328522C406C63284FD
:10A31000EF00505511ED1765020013052555B240A9
:10A320002244410182801765020013052554828072
:10A3300097650200938585532285EF00B05261DD59
:10A3400097650200938585292285EF00B05161D57C
:10A350000145F1B79767FE079387C7D69C43DC5B3F
:10A3600081C703C5871282809767FE079387871886
:10A3700003C5871282800325C50E82809767FE077A
:10A38000938747D49C43DC5B81C703A5C70E8280BB
:10A390009767FE079387071603A5C70E8280976706
:10A3A000FE07938727D22E86AA85884381BF7971BD
:10A3B00026D24ECE06D622D44AD052CC56CA5AC83D
:10A3C0005EC662C466C29384B500D947AA8963E5B4
:10A3D0009704C14763EAB718EF00300EC144E14764
:10A3E00009461769FE071309A927CA97C0431387AF
:10A3F00087FF6303E41A5C4054441044F19BA29726
:10A40000D84354C64E8590C613671700D8C3EF00D3
:10A41000F00A13058400A9AAE19863C7041463E550
:10A42000B414EF0090099307701F63F5973693D724
:10A430009400638C071411476369F73093D7640065
:10A440001386970313858703931636001769FE0753
:10A4500013090921CA96C042E116638586025C4051
:10A46000BD45F19B3387974063CDE50063500728D6
:10A470004044638986005C40F19B33879740E3D773
:10A48000E5FE2A86032409011768FE071308C81D84
:10A49000630004134C403D47F199B3879540634AEC
:10A4A000F730232A09012328090163DA072E9307CD
:10A4B000F01F63EBB7248D81938715008E0703256A
:10A4C0004900CA979443898505473317B700498FD8
:10A4D000938587FF4CC414C42322E90080C3C0C6FF
:10A4E000935726408546B396F600636CD70CB3F7B6
:10A4F000E60081EF8606719AB3F7E600110691E750
:10A500008606B3F7E6001106E5DF3D4593183600F1
:10A51000CA98C6853283C04563988500B9A4635D37
:10A5200007244044638385245C40F19B3387974034
:10A53000E357E5FE5444104493E514004CC0A29444
:10A5400054C69365170090C6A297232A9900232822
:10A5500099004E8523A6040123A40401CCC098C30E
:10A56000B12F1305840029A0B14723A0F9000145AC
:10A57000B250225492540259F249624AD24A424B92
:10A58000B24B224C924C4561828093060020130608
:10A5900000041305F0035DBDC0470906E39D87E491
:10A5A000032409011768FE071308080CE31404EFDD
:10A5B00003274900935726408546B396F600E37873
:10A5C000D7F203248900832A440093FBCAFF63E780
:10A5D0009B00B3879B403D47634CF70E179CFE07DB
:10A5E000130C4C30832A0C0003278940FD57330A93
:10A5F0007401A69A6306F7268567BD07BE9AFD77A4
:10A60000B3FAFA00D6854E85312F2A8BFD576302A7
:10A61000F51E636E451D83274C00D6972322FC0050
:10A620003E87630FAA2A83268940FD576386F62C4E
:10A63000B3074B41BA972322FC00937C7B00638EC7
:10A640000C22330B9B418567210B138AF7FFDA9AA3
:10A65000A10733F74A01B3879741998F33FA47012E
:10A66000D2854E85C125FD57630AF52C330565411A
:10A67000B30A450183274C002324690193EA1A0099
:10A68000D2972322FC0023225B01630A24273D4644
:10A6900063797627544013874BFF619B858AD98E57
:10A6A00054C09545B306E400CCC28CC6636EE62860
:10A6B000832A4B005A840327CC026374F7002326B5
:10A6C000FC0203270C03637AF7122328FC0235A24D
:10A6D00013E7140058C0A2942324990093E71700AD
:10A6E0004E85DCC0E12B1305840059B55444104459
:10A6F000A297D84354C64E8590C613671700D8C397
:10A70000752B13058400ADB593D795001147637879
:10A71000F70C51476366F7189386C7051387B7058B
:10A720008E06CA969C42E116638EF612D843719B40
:10A7300063F5E5009C47E39BF6FED44703274900F9
:10A7400054C41CC480C6C0C761BB51476374F70CB6
:10A75000130740056362F71693D7C4001386F70604
:10A760001385E70693163600D5B1050393773300BA
:10A77000A105E39207DA5DA8A297D8435444104498
:10A7800013671700D8C34E8554C690C6052B130512
:10A790008400F9BB13D634009387840099B1A29545
:10A7A000DC414E8593E71700DCC1092B13058400BB
:10A7B000C1B313E7140058C0A294232A9900232898
:10A7C000990013E7170023A6040123A40401D8C0AD
:10A7D000A2954E859CC1DD211305840051BB93D702
:10A7E000650093869703138787038E061DBF630258
:10A7F000240F03248900832A440093FACAFFB387F5
:10A800009A4063E59A003D47E344F7EC4E857D218D
:10A810000145B9BB1386C7051385B70593163600E6
:10A8200035B183A788007D16639417179377360098
:10A83000E118E5FB0327490093C7F6FFF98F2322B0
:10A84000F9008606E3EFD7D6E38D06D633F7F60098
:10A8500011E7860633F7F600110365DF1A867DB12E
:10A86000C10A4DB3032549009355274005473317C7
:10A87000B700498F2322E900E1B585671387F7FF09
:10A88000330A5B01337AEA00B387474133FAE700C2
:10A89000D2854E854129FD57E31AF5DC014AD9BB23
:10A8A000130740056363F70693D7C5009386F70641
:10A8B0001387E7068E06B5B5130740156363F706E1
:10A8C00093D7F4001386870713857707931636000E
:10A8D000B5BE83274C003387FA002322EC00A1B3D6
:10A8E00093164A01E39106D403248900DE9A93EA81
:10A8F0001A0023225401C1B3232469413DBB5A8469
:10A900005DBB85472322FB0011B713074015636920
:10A91000F70493D7F50093868707138777078E068A
:10A9200009B5130740556369F70493D724011386CB
:10A93000D7071385C7079316360009BEE11CE69AB0
:10A94000B38A6A41014A3DB3930584004E85EFF016
:10A95000EFE70324890083274C00832A4400A1BB2E
:10A96000130740556361F70293D725019386D707F4
:10A970001387C7078E0675B39306803F1306F0074B
:10A980001305E007E1B49306803F1307E00751BBCE
:10A99000832749007DB59757FE079387A7729C438D
:10A9A000DC5B81C703A3470E02839767FE0793878B
:10A9B00067B403A3470E028399C91DC695CA83478E
:10A9C00006009CC1034506003335A000828041117A
:10A9D0006C0009CE85C2834706009CC10345060072
:10A9E0003335A00041018280014582800145DDBFF1
:10A9F000795582807955FDB78D4763F0C702B367FB
:10AA0000B5008D8B8D46A9E718419C416312F70470
:10AA1000711611059105E3E9C6FE9307F6FF1DC601
:10AA20000347050083C605006397E60213871700F6
:10AA3000930715003A9501A803C7070083C60500D0
:10AA40008507631AD7008505E398A7FE0145828034
:10AA50009307F6FFF1B73305D7408280B3C7A5004F
:10AA60008D8BB308C500A1E78D4763F2C7049377C8
:10AA700035002A87A9EB13F6C8FF930706FE636724
:10AA8000F7066373C702AE86BA8703A8060091076C
:10AA9000910623AE07FFE3EAC7FE9307F6FF998FFF
:10AAA000F19B91073E97BE956366170182802A87C6
:10AAB000E37E15FF83C7050005078505A30FF7FE95
:10AAC000E36A17FF828083C6050005079377370086
:10AAD000A30FD7FE8505C5D383C605000507937769
:10AAE0003700A30FD7FE8505F9FF71B7944183A204
:10AAF000450083AF850003AFC50083AE050103AEFB
:10AB0000450103A3850103A8C5019385450214C32C
:10AB100083A6C5FF232257002324F7012326E7013C
:10AB20002328D701232AC701232C6700232E0701DE
:10AB300013074702232ED7FEE36AF7FA99B763F2A9
:10AB4000A502B387C500637EF5003307C50045CA7B
:10AB5000FD1783C607007D172300D700E39AF5FE93
:10AB60008280BD4763E1C702AA879306F6FF49CEFC
:10AB70008506BE96850503C7F5FF8507A38FE7FE0B
:10AB8000E39AD7FE8280B3E7A5008D8BB5EB9308DF
:10AB900006FF93F808FFC108330815012E87AA871E
:10ABA0001443C107410723A8D7FE832647FF23AAE2
:10ABB000D7FE832687FF23ACD7FE8326C7FF23AEAD
:10ABC000D7FEE31FF8FC1377C600C6951378F6008E
:10ABD0000DCF2E87BE880D4E11070323C7FF9108A6
:10ABE000B306E84023AE68FEAE96E367DEFE1307C9
:10ABF000C8FF719B11070D8ABA97BA95BDB78280BD
:10AC00009306F6FFAA87ADB782804286B9BF0000DF
:10AC10003D432A876373C3029377F700BDEFADE529
:10AC2000937606FF3D8ABA960CC34CC30CC74CC73B
:10AC30004107E36BD7FE11E28280B306C3408A0668
:10AC40009702000096966780A6002307B700A30628
:10AC5000B7002306B700A305B7002305B700A30478
:10AC6000B7002304B700A303B7002303B700A30270
:10AC7000B7002302B700A301B7002301B700A30068
:10AC8000B7002300B700828093F5F50F93968500F7
:10AC9000D58D93960501D58D61B7939627009702C0
:10ACA000000096968682E78086FA9680C1171D8FEF
:10ACB0003E96E374C3F8A5B7000082808280975760
:10ACC000FE07938727409C4323A4A70A23A6070ACD
:10ACD00082809757FE079387E73E03A80700B78552
:10ACE000954C9385D5F28326880A0327C80AB38733
:10ACF000B60213861700B337F6002324C80A37F6C6
:10AD000051581306D6423386C6023307B702B3B68C
:10AD1000B60232973697BA97139517002326F80A8A
:10AD200005818280411122C42A842E8597D7FE078F
:10AD300023AE077806C6EF70814FFD576306F50016
:10AD4000B24022444101828097D7FE07938707785B
:10AD50009C43FDD71CC0B240224441018280357122
:10AD60003ECB9307402086DEA2DC32C52E8436C758
:10AD70003AC942CD46CF231AF1002AC42ACCEF00AB
:10AD8000B0002A873AC63ACE9757FE079387873393
:10AD9000170700001307E70B88433AD43C017D579F
:10ADA00022862C00BE8602DC82C6231BE1003EC246
:10ADB000EF1020356654F6500D61828035713ECB20
:10ADC00093074020A2DC2A842E8586DEA6DA36C7C9
:10ADD000B2843AC942CD46CF231AF1002EC42ECCFC
:10ADE00065272A873AC63ACE170700001307670679
:10ADF0007C013AD47D5726862C002285BE8602DC53
:10AE000082C6231BE1003EC2EF10A02F6654F6500D
:10AE1000D6540D618280411122C42E848395E500B1
:10AE200006C6EF30D07A634905003C48B240AA9785
:10AE30003CC82244410182808357C4007D777D173E
:10AE4000F98F2316F400B24022444101828001456B
:10AE500082808397C500011122CC26CA4AC84EC6FB
:10AE600006CE13F707102E84AA843289B6898395FB
:10AE7000E5000DE37D777D17F98F2316F40062441A
:10AE8000F240CE864A86B24942492685D2440561BF
:10AE90006F30401489460146EF30402E8317C400BE
:10AEA0008315E400C1BF411122C42E848395E500BF
:10AEB00006C6EF30A02CFD57630DF5008357C40084
:10AEC000056728C8D98F2316F400B24022444101F7
:10AED00082808357C4007D777D17F98F2316F40095
:10AEE000B2402244410182808395E5006F30801298
:10AEF000411122C406C6937735002A84A9E7184178
:10AF00003706FFFE1306F6EFB307C700B78680804B
:10AF10001347F7FF93860608F98FF58F8DE7110524
:10AF20001841B307C7001347F7FFF98FF58F81EF7B
:10AF300011051841B307C7001347F7FFF98FF58FC5
:10AF4000F9DF11A0050583470500EDFF252C2285BB
:10AF5000B24022444101828093F6F50F9377350089
:10AF6000CDC285C383470500D9CB6398F600CDA831
:10AF700083470500C9C76385D70805059377350062
:10AF8000E5FB93F5F50F93978500DD8D184113933D
:10AF900005013363B3003708FFFE3346E3001308AF
:10AFA000F8EF9347F7FF9345F6FF42974296F98FE4
:10AFB0006D8EB7888080D18F93880808B3F717010A
:10AFC0009DE31105184133466700B3070701B30538
:10AFD00006011347F7FF1346F6FFF98F6D8ED18FE9
:10AFE000B3F71701F9DF8347050091CB6395F600AE
:10AFF00001A86385D706050583470500FDFB0145CC
:10B00000828081CF8347050089E791A883470500A7
:10B01000E5DB050593773500F5FB18413706FFFEA4
:10B020001306F6EFB307C700B78680801347F7FF14
:10B03000F98F93860608F58F91EB11051841B30738
:10B04000C7001347F7FFF98FF58FE5DB834705004E
:10B05000C5DB050583470500EDFF82808280828085
:10B06000828000003367B500FD530D8B79E7B78709
:10B070007F7F9387F7F710419441B372F6003363F3
:10B08000F600BE92B3E262006397720C6318D606B4
:10B090005041D441B372F6003363F600BE92B3E27E
:10B0A00062006398720A631BD60410459445B3721C
:10B0B000F6003363F600BE92B3E262006391720A57
:10B0C000631ED6025045D445B372F6003363F600D2
:10B0D000BE92B3E26200639A72086311D60210490D
:10B0E0009449B372F6003363F600BE92B3E2620095
:10B0F000639372085105D105E30FD6F613170601C5
:10B1000093970601631CF7001357060193D70601B6
:10B110003305F7409375F50F91E982804183C18330
:10B120003305F7409375F50F91E182801377F70FA0
:10B1300093F7F70F3305F74082800346050083C677
:10B140000500050585056313D60065FA3305D6406D
:10B15000828011059105E312D6FE0145828021050A
:10B16000A105E31CD6FC014582803105B105E3163B
:10B17000D6FC014582804105C105E310D6FC01459E
:10B1800082800000B367B5008D8BB9EF9841B78618
:10B190007F7F9386F6F7B377D700B697D98FD58F91
:10B1A0007D56639CC7042A867D5891051106232E7F
:10B1B000E6FE9841B377D700B697D98FD58FE3864F
:10B1C00007FF83C7050003C7150083C625002300BA
:10B1D000F60099C7A300E60001C72301D60091E25B
:10B1E0008280A30106008280AA8703C70500850725
:10B1F0008505A38FE7FE75FB82802A86D9B72E8846
:10B200009307E008B28563EC073397080200938840
:10B21000E8D51317280046971C43C6978287176501
:10B2200002001305E5D4828017650200130585CB63
:10B23000828017650200130565C9828017650200C8
:10B24000130585C7828017650200130525CD82800E
:10B25000176502001305059C82801765020013051F
:10B26000E58E8280176502001305C5C182801765CF
:10B2700002001305A5C28280176502001305C58070
:10B28000828017650200130525BC828017650200C5
:10B290001305C5A28280176502001305A5CA828026
:10B2A000175502001305C56A828017550200130561
:10B2B000A566828017550200130585768280176582
:10B2C00002001305E58582801755020013054574B9
:10B2D000828017650200130525C882801755020079
:10B2E000130545788280176502001305E594828076
:10B2F000176502001305C5B68280176502001305A5
:10B3000025B3828017650200130585AF828017651B
:10B310000200130565AD8280176502001305C5AAFA
:10B32000828017650200130525A882801765020038
:10B33000130585A48280176502001305A5A18280EC
:10B3400017650200130505AD82801765020013051D
:10B35000A5BA8280176502001305459E8280176595
:10B3600002001305E59B8280176502001305059A0C
:10B370008280176502001305A59782801765020079
:10B380001305459682801765020013056594828037
:10B390001765020013058591828017650200130569
:10B3A000658F8280176502001305858D8280176581
:10B3B00002001305658B8280176502001305459B0B
:10B3C00082801765020013052589828017650200B7
:10B3D0001305058882801765020013052585828084
:10B3E000176502001305C5818280175502001305F9
:10B3F000657F8280175502001305857D8280175571
:10B4000002001305E579828017550200130585783F
:10B410008280175502001305E576828017550200D9
:10B420001305C574828017550200130525738280A9
:10B430001755020013050570828017550200130589
:10B44000256D8280175502001305856B8280175584
:10B450000200130565698280175502001305C56651
:10B46000828017550200130525648280175502005B
:10B470001305055E8280175502001305655C828006
:10B48000175502001305C557828017550200130592
:10B4900025568280175502001305455482801755A2
:10B4A00002001305E5528280175502001305C550AE
:10B4B0008280175502001305654F828017550200E0
:10B4C0001305854D8280175502001305A54B828018
:10B4D000175502001305C549828017550200130550
:10B4E00065468280175502001305C54482801755B2
:10B4F0000200130525418280175502001305453FC0
:10B500008280175502001305E53C82801755020022
:10B510001305853B8280175502001305653982802B
:10B52000175502001305C537828017550200130511
:10B53000653582801755020013050534828041115C
:10B5400006C689CA36864285EF20101E11C5B24054
:10B5500041018280AA86FDB7175502001305050830
:10B56000FDB79757FE079387E7B5AA8588438146BD
:10B57000014671B19757FE079387C7B4AA858843E0
:10B5800081460146ADB90000937735002A87A1E3D3
:10B59000B7867F7F9386F6F7FD5511070326C7FF11
:10B5A000B377D600B697D18FD58FE388B7FE8346A1
:10B5B000C7FFB307A7400346D7FF0345E7FF8DC684
:10B5C0000DC23335A0003E9579158280F1D28347B4
:10B5D0000700050793763700F5FB098F1305F7FF82
:10B5E00082801385D7FF82801385C7FF828051CE6A
:10B5F000B367B5008D8BB9EF8D4763FDC7041C4160
:10B6000098416396E708711649C23703FFFE13039A
:10B61000F3EF33876700B788808093C7F7FFF98F10
:10B6200093880808B3F71701ADE30D4E05A0184144
:10B630009441B30767001348F7FFB3F70701B3F767
:10B6400017016316D704711629C2A1E311059105EC
:10B65000E36FCEFC0347050083C605007D166393A8
:10B66000E60205C61DC3930715002A9629A0630E9E
:10B67000F600850719CB850503C7070083C60500BB
:10B68000E307D7FE3305D740828001458280034718
:10B69000050083C605007D16E386E6FCE5B7B3E743
:10B6A000A5008D8BB9EB8D472A8763EAC70429C6AD
:10B6B00003C805009306F6FF8505230007019307DD
:10B6C0001700630108023A96BA9639A003C7F5FF3E
:10B6D0008507A38FE7FE01CB85053388F640E39706
:10B6E000C7FE828036883387070163050804850713
:10B6F000A38F07FEE39DE7FE82802A874DBF3703B5
:10B70000FFFEB78880801303F3EF938808080D4E7F
:10B710009441B387660013C8F6FFB3F70701B3F788
:10B720001701D9F71107232ED7FE71169105E36192
:10B73000CEFEB5BF82809DC5411122C426C206C679
:10B740002E84AA87814421A093071500AA843E85F0
:10B75000A285EFF07F806DF9B240224426859244A5
:10B76000410182806FF04FFF054E85460148FD582C
:10B77000B30715013387D700B307D8003303F500AB
:10B7800063F6B7020343030003470700637DE30644
:10B790003E88338E1741B307150185463387D7009E
:10B7A000B307D8003303F500E3EEB7FC2320C6014E
:10B7B000854E854601487D53B30765003387D70022
:10B7C000B307D800330EF50063F6B702034E0E0040
:10B7D000034707006370C7053E88B38E6740B30711
:10B7E000650085463387D700B307D800330EF500D0
:10B7F000E3EEB7FC0503138518006365A30023205F
:10B80000D6011A858280630EE300C288054E0508C2
:10B810008546B9BF630BEE004283854E0508854619
:10B8200061BF6388C6018506A1B76387D601850617
:10B8300061B73E8885462DBF3E888546B5BF13015A
:10B8400001BA232A9143B28C232A91442326B1437F
:10B85000AA84AE8D7008B6856685232C8144232684
:10B860003145232E114423282145232441452322F9
:10B87000514523206145232E7143232C81432328E6
:10B88000A1433684D535AA891C101307014280C311
:10B890009107E39EE7FE05C41306F4FFB305940188
:10B8A000668766968347070013050142B306E640A4
:10B8B0008A07AA9723A0D7C00507E315B7FEF2456C
:10B8C0004E866685E695EFF02F93631805120149C1
:10B8D000B30B8900938AF9FF054A3386BB41814542
:10B8E0003385B401014C130DF4FF338B5C01330A33
:10B8F0003A41EF20701C31E163810B04B38774017E
:10B9000083C7F7FF130701428A07BA9783A707C0C7
:10B91000BDC363070C00724763F4E700B307E4405C
:10B920003E99014CDE8DB30B89003386BB418145C6
:10B930003385B401EF20501861D101458320C14502
:10B940000324814583244145032901458329C144BA
:10B95000032A8144832A4144032B0144832BC1439E
:10B96000032C8143832C4143032D0143832DC1428A
:10B97000130101468280E28763733C01CE8763F83E
:10B98000A70333872401B386FC003E9709A88507E7
:10B990003307F900B386FC00269763FAA70183C634
:10B9A000060003470700E384E6FE529995BFD6865A
:10B9B00063783C13B3872401D69703C707008347F6
:10B9C0000B00630AF70029AA0346060083C7070095
:10B9D000631CF600BA861387F6FFB307E9003386C7
:10B9E000EC00A697E312DCFE050C63EF860F724CA9
:10B9F000DE8D6299330C84413DB7B307344163EF68
:10BA0000370D8507138BF9FF3ECEB3876C013EC41B
:10BA1000054A9387E9FF014D130CF4FF3EC61389D5
:10BA2000FCFFB38A3C01330A3A41B30B8D003386E5
:10BA3000BB4181453385B401EF201008E31F05EEBB
:10BA4000E38D0BEEB387740183C7F7FF1307014241
:10BA50008A07BA9783A707C081C73E9DDE8DF1B7DD
:10BA6000B386A40163FA8903B387360103C60700CE
:10BA700003C70A00CE876309E600A9A803460600AB
:10BA8000034707006318E60485073307FD00338684
:10BA9000FC002697E3E487FFFD576305FB04B387AB
:10BAA000660183C50700A24703C60700B247338774
:10BAB000A7012697E697639CC5006385270383C586
:10BAC000070003460700FD177D17E388C5FEF24710
:10BAD0003E9D69B7529D3E9DDE8D81BFCE8715B7D5
:10BAE000CE8619B7368599BD3385240181BD1D7178
:10BAF00086CEA2CCA6CACAC8CEC6D2C4D6C2DAC026
:10BB00005EDE62DC66DA6AD86ED60347050003C3E0
:10BB1000050059C763070316AE862A869A8705482B
:10BB200011A099CF0506B307F7400347060093B865
:10BB30001700850683C70600337818017DF3A5E753
:10BB4000AA84631F08022E89AA899A850505338471
:10BB50002641EFF06FC0AA8439C585476302F4021D
:10BB600033858900854D63649500B30D9540FD478D
:10BB700063FD87022685A2864A86EE85C931AA849E
:10BB8000F640664426854649D644B649264A964A32
:10BB9000064BF25B625CD25C425DB25D25618280E5
:10BBA000AA84E30F03FC8144E1BF7008A2854A85A3
:10BBB000653EAA8CF2452A864A85CA95EFE0DFE306
:10BBC00079C1B307944163F39701E6878507138B27
:10BBD000FCFF3ECEB30769013EC4854A9387ECFF64
:10BBE000014D3EC6130CF9FF338A9401B309990144
:10BBF000B38A9A41B30BA4013386BB418145338597
:10BC0000B401EF20606B45F1E38F0BF863FA8C020F
:10BC1000B307AA0183C6070003C70900E687638943
:10BC2000E600C9A883C60600034707006394E60C34
:10BC300085073387A701B306F9002697E314F4FEBE
:10BC4000FD57B385A4016302FB10B387650103C7E9
:10BC50000700A24783C707006311F702B247330703
:10BC6000FD002697CA976382870F03C607008346A5
:10BC70000700FD177D17E308D6FEF247DE8D3E9DD7
:10BC800095BFAA84F5BD938AFCFF054A014C814902
:10BC9000B38B5401330B5901330A9A41330D3401EC
:10BCA0003306BD4181453385B401EF20E060E31CDC
:10BCB00005EEE30A0DEEE68763F38C01E28763FF8E
:10BCC00087023387F400B306F9004E9709A8850769
:10BCD00033873701B306F90026976301F40283C660
:10BCE000060003470700E384E6FED299BE99014CA3
:10BCF000EA8D6DB7569D3E9DDE8DEDBDD686637493
:10BD00009C05B3873B0103C7070083470B00630A09
:10BD1000F70015A80346060083C70700631CF6005A
:10BD2000BA861387F6FFB387E9003306E900A697C2
:10BD3000E312DCFE050C63EC8601724CEA8DE2999D
:10BD4000330C8441A1BFE686F5B7AE8415BDCE9411
:10BD500005BD797126D24AD04ECE52CC5AC85EC6A5
:10BD600006D622D456CAAE84AA893289368ABA8BBC
:10BD70002E8B11A0228B13041B00834AF4FF5E85D7
:10BD8000EFE06FDF569503461500218A65F69307AD
:10BD9000D0026383FA0E9307B0026384FA065687D3
:10BDA000814E63070A06C1475283630FFA0C370EB0
:10BDB000008063940E00134EFEFF337F6E02014637
:10BDC0000145A546E548FD5533586E02930707FD2A
:10BDD00063F8F6009307F7FB63E3F804930797FC17
:10BDE00063D74705630BB6007D566368A8006307F9
:10BDF000A8060546330565023E9505040347F4FF92
:10BE0000F1B703470400814E13042B00E31D0AF829
:10BE1000930700036308F7082943294A49BF93079A
:10BE2000F7F963E6F800930797FAE3CD47FBFD5770
:10BE30006309F60263840E003305A0406305090020
:10BE400031E223209900B250225492540259F2490F
:10BE5000624AD24A424BB24B45618280E34FFFF8BF
:10BE600049BF9307200223A0F9007285E30D09FC66
:10BE70009304F4FF7285F1B703470400854E130461
:10BE80002B0005B72A8EEDB793070003631AF7005E
:10BE9000834704009306800593F7F70D638ED70060
:10BEA000414331B78347040093068005214393F74C
:10BEB000F70D214AE39DD7EE0347140041430904DF
:10BEC000414AF5B59747FE079387C71F9C43D85B48
:10BED00011C341B51747FE071307C7619DBD9747BB
:10BEE000FE079387271E3687B2862E86AA8588434B
:10BEF0008DB59747FE079387E71C9C43B286D85BB6
:10BF000009C72E86AA853E85A9B52E861747FE0746
:10BF10001307475EAA853E852DBD797126D24AD08A
:10BF20004ECE56CA5AC85EC606D622D452CCAE846D
:10BF3000AA893289368BBA8BAE8A11A0A28A138461
:10BF40001A00034AF4FF5E85EFE0EFC25295034604
:10BF50001500218A65F69307D0026302FA0E930753
:10BF6000B002630EFA045287014E63010B06C1470B
:10BF7000630DFB0C7D53B3556303DA88337363039E
:10BF800001460145A5466548930707FD63F8F6009D
:10BF90009307F7FB636AF804930797FC63DE670572
:10BFA000634206047D5663E8A500630DB5060546A9
:10BFB000330515033E9505040347F4FFF1B7034726
:10BFC0000400014E13842A00E3130BFA93070003C5
:10BFD0006303F70AB7A59919154393859599A9485D
:10BFE000294B79BF7D56C1BF9307F7F96366F80007
:10BFF000930797FAE3C667FB6349060263040E00E2
:10C000003305A0406305090005EA23209900B250DA
:10C01000225492540259F249624AD24A424BB24BDC
:10C0200045618280E349F3F859B79307200223A0C2
:10C03000F9007D55E30D09FC9304F4FFF9B70347BC
:10C040000400054E13842A000DB7930700036319FB
:10C05000F704834704009306800593F7F70D639B6D
:10C06000D702B7050010034714003D430904FD152E
:10C07000C148414B31B7834704009306800593F7CD
:10C08000F70DE380D7FEB70500201D43FD15A1483D
:10C09000214BFDB5FD55C148B3D565033D43CDB535
:10C0A000B70500103D43FD15C148D9BD9747FE07B0
:10C0B000938747019C43D85B11C385B51747FE079B
:10C0C0001307474399BD9747FE079387A7FF368716
:10C0D000B2862E86AA85884389B59747FE0793873F
:10C0E00067FE9C43B286D85B09C72E86AA853E852B
:10C0F0002DB52E861747FE071307C73FAA853E8535
:10C1000029BD130101AE232C81502328A14F2326E2
:10C11000B14F232E1150232A915023282151232639
:10C120003151232441512322515123206151232E87
:10C13000714F232C814F232A914FFD771304015215
:10C14000938707B0A29788C3FD770397C5009387AD
:10C1500007B1A29794C37D73931727011A91AE8DEF
:10C16000328D63CB07000966F451518F79767D16C5
:10C17000F18E2396E500F4D1FD76938646B0A29623
:10C1800023A00600FD76938646B1A29623A0060062
:10C19000FD76938686B0A29623A00600FD76938650
:10C1A00086B1A296FD7723A00600930604FC1387B0
:10C1B00087B83697338CF600FD769386C6B0A29684
:10C1C00098C2130704FC938707C9BA977D771307B2
:10C1D000C7B122971CC37D77130707B022976A8BDC
:10C1E000032D0700EE87814ADE8DBE8B83470B004F
:10C1F000130A1B00232EFCB6D1CBEFE02F98832728
:10C20000CCB73E950349150013798900631B090ECD
:10C2100013075002639EE70283461B008149814455
:10C220001306500517F70100130707F813058006DA
:10C230009305C0069387B6FD93F7F70F130B1A000B
:10C240006362F6128A07BA979C43BA9782875A8A22
:10C2500083A74B00E356F03883A70B000347FAFF90
:10C2600083C607006394E60203A74B00850723A05B
:10C27000FB009307F7FF528B23A2FB0083470B00C1
:10C28000850A130A1B00232EFCB6A5FBFD779387B6
:10C2900047B1A2979C4389CFFD77938747B1A29777
:10C2A0009C4303A90700630509004A85EF50517AB2
:10C2B000FD77938787B17D73A297130303AE8843FD
:10C2C0003301640005631A918320C1510324815115
:10C2D00083244151032901518329C150032A8150EC
:10C2E000832A4150032B0150832BC14F032C814FD4
:10C2F000832C414F032D014F832DC14E1301015259
:10C30000828083A74B006358F002EFE02F8703A7DA
:10C310000B00834707003E9583471500A18B8DC313
:10C3200083A74B00050723A0EB00FD1723A2FB000A
:10C33000850AE34CF0FCDE856A85EF40403171D51B
:10C34000528B6DB593F7F900B1F383461A005A8A00
:10C3500093E929009387B6FD93F7F70F130B1A00A3
:10C36000E372F6EEFD77938747B1A2979C43A9D37A
:10C3700003A907000DBF93F7F90089FB83461A0054
:10C380005A8A4DBD93E919007D779707000093877E
:10C3900027D2130747B022971CC3A1477D77130705
:10C3A00087B022971CC30D4A83A74B00635CF05CE7
:10C3B00093F70904E1CF8947630EFA1063D04779F8
:10C3C0008D47E30CFA429147E313FA226A85EF1096
:10C3D000B0561041FD75938505AFA29590C17D764D
:10C3E0001306C6AE22960567232006009387F4FF46
:10C3F0009306C73663F9F600FD77938737C9A6978A
:10C400001CC29304D736FD77938747AEA29723A02B
:10C410000700FD77938787AEA29723A00700FD77DB
:10C42000938787AFA2977D77130707C923A00700DB
:10C43000930704FC93EC0978B389E7007D77014A00
:10C44000130747AFD287014E22974E8A23206701F8
:10C45000A6891303E00417F60100130666EA728B3F
:10C46000BE8403A70B0083450700938755FD93F710
:10C47000F70F636DF34C8A07B2979C43B29782879C
:10C48000DE856A85EF40A01C63140550EFD01FEFD6
:10C4900003A70B00834707003E9583471500A18B38
:10C4A00099DB83A74B00850AFD1723A2FB00E35904
:10C4B000F0FC050723A0EB00EFD05FEC03A70B0017
:10C4C000834707003E9583471500A18BF9FB8947F9
:10C4D000E316FAEE91E0FD5413F9190013FA09017D
:10C4E000E30E095663040A006F10C033FD7793878B
:10C4F00007B1A2979C43FD76938686AF9843A29698
:10C50000910798C2FD76938606B1A2969CC293F9D4
:10C510000908639409006F10207AE30507E4130506
:10C520000008EF5011522A8919E16F10D007FD77EA
:10C53000938747B1FD76A297938686AF9843A296DC
:10C540009442835C67008357470088C263E4FC0021
:10C550006F10805A084393972C003E95FD77938780
:10C5600047B1A2979C43850C7D7723939701FD7774
:10C57000938787AFA2979C43130747AF22971CC1AD
:10C5800093070002CA8C1CC38149EFD03FDF83A709
:10C590000B0083C707003E9583471500A18B99C305
:10C5A0006F10403D99E06F10E03CEFD0BFDA6301BF
:10C5B000353F83A70B0003A74B00B3063C0103C61E
:10C5C00007007D17850723A0FB002388C6C823A288
:10C5D000EB008D4785096397FD0083278CB81147D1
:10C5E000638BE700FD779387C7B0A2978843214606
:10C5F0008145EFE0EFE1FD779387C7B0A2979843BD
:10C60000FD779387C7B1A2979043CE86CA856A8586
:10C61000EF10D03AAA8DFD57630CF53619C16F1093
:10C62000E03223200900EF10502E19C16F10205D59
:10C63000CE9AFD1463040A006F100075FD7793878E
:10C6400087AFA2979C43110999E36F10E073FD76C1
:10C65000938646AFA2969442B307994113D72740D9
:10C6600081496374D7006F10C02E7D77130707AF21
:10C6700022976685939536001CC3B689EF50B13E6C
:10C68000AA8C19E16F102072FD77938707AFA297EC
:10C690009C437D77130747AF3309F500FD779387F8
:10C6A00087AFA2979C43229788C3939719001CC316
:10C6B000D2896F10002AB3072B0185E793FCFCE7B2
:10C6C0002300BA00FD19050A83A74B00850AFD1750
:10C6D00023A2FB006353F022050723A0EB00E392A3
:10C6E00009D8FD77938747AFA297D2895A8E268AB9
:10C6F00003AB0700E39604747D1E854763E4C7011E
:10C700006F10806D9307F9FF19476364F7006F108E
:10C71000A02F93F70C10A1C793F70C4099C36F108B
:10C72000C07183C5F9FF930750069384F9FF1389FD
:10C73000FAFF6380F50293075004638CF5005E8670
:10C740006A85EF3090669384E9FF83C5E9FF13891A
:10C75000EAFF5E866A85EF305065CA8AA68993F73C
:10C760000C01E39507A82380090093F70C601307D9
:10C7700000406394E7006F003078FD77938787AEC1
:10C78000A2979C4399C36F10604B7D77130707B145
:10C790002297184393F72C0093F91C009304470049
:10C7A00099E36F00307AFD77138507B69387C7B199
:10C7B000A2979043930704FC8146EA853E95EF30AB
:10C7C000C0760148814883250CB603264CB68326E3
:10C7D0008CB60327CCB6638409006F10E026FD7782
:10C7E000938707B1A2979C439C438CC3D0C394C743
:10C7F000D8C7FD77938787B1A2979C437D771307AE
:10C8000087B1850722971CC3FD77938707B1A2974D
:10C8100084C3E9BA9D47E316F9EC214955B5E317FE
:10C820000922E396046093F70C701305007063947B
:10C83000A7006F102039FD77938747AFA297D28961
:10C840005A8E268A03AB070045BD8947E31BF9E8EA
:10C850000D49BDB593F70C50930600406387D70090
:10C8600093F70C40E38F07E6F9D493F70C209DE390
:10C87000FD77938787AFA2979C43FD76938686AE1C
:10C88000B387F440A2969CC2FD77938747AEA297E8
:10C8900023A0470193FCFC8793EC0C1881440DB551
:10C8A0008547E310FBE4094B21BD93F70C08E38AAD
:10C8B00007E293FCFCF729B593F70C10E38D07DE34
:10C8C000FD779387C7AEA2979C4393FCFCF7850442
:10C8D000E3830760FD779387C7AEA2979C43FD76FD
:10C8E0009386C6AEFD17A2969CC283A74B00850A0D
:10C8F000FD1723A2FB00E341F0DEDE856A85EF3001
:10C9000010551303E00417F601001306669FE31A9F
:10C9100005DCE39809B4F1B39947E314F9DC1D4948
:10C9200045B3E31F0B1089E893F70C7013050070F3
:10C930006394A7006F10602885476305F90091474D
:10C94000E311F9DA05091379F90F9DBBFD77938798
:10C9500007AFA2979C4383C70700E394B7D893F728
:10C960000C20E38007D8FD77938787AFA29793FCCD
:10C97000FCD784C3B1B393E9190083A74B00094ADC
:10C98000E348F0A2DE856A85EF30704CE30205A231
:10C99000DE8DFD77938787B1A2979C4399E36F1053
:10C9A000404783D7CD0093F70704E381078EFD77D7
:10C9B000938747B1A2979C4399E36F10E04003A986
:10C9C000070083D7670085C393992700CA84CA9953
:10C9D0009C4091048843EF50B10783A7C4FF23A074
:10C9E0000700E39734FF7D77130787B1FD57229740
:10C9F0001CC355B893E9190097F7FFFF9387C74CFD
:10CA00007D77130747B022971CC3A94741BA93E922
:10CA1000190093E90904014A41BA93F7F908E39729
:10CA2000078693972400BE948604B694938404FDED
:10CA3000B1B2114A95BA7D7797F7FFFF9387C74840
:10CA4000130747B022971CC3FD77938787B0A2973F
:10CA500023A007000D4A89BA93F7F900E3980782EB
:10CA600083461A00E387A65493E949005A8A6FF077
:10CA70006FFCFD77138507B9930704FCDA853E95B3
:10CA8000EF20E0382A8B93E90904054A31BA93E98B
:10CA900009207D7797F7FFFF93878761130747B0DA
:10CAA00022971CC3C147DDB897F7FFFF9387476004
:10CAB00081BF93E90922F1BF93F7F900639807FC5E
:10CAC00083461A00E380B64E93E919005A8A6FF044
:10CAD0006FF693F70901639B07F07D77130707B1A2
